:020000040800F2
:100000000000022039230008911D0008991D0008F6
:10001000A11D0008A91D0008B11D00080000000076
:10002000000000000000000000000000619C0008CB
:10003000B91D000800000000B19E0008199F0008CB
:1000400089230008892300088923000889230008E0
:1000500089230008892300088923000889230008D0
:1000600089230008892300088923000889230008C0
:1000700089230008892300088923000889230008B0
:1000800089230008892300088923000889230008A0
:100090008923000889230008892300088923000890
:1000A0008923000889230008892300088923000880
:1000B0008923000889230008892300088923000870
:1000C0008923000889230008892300088923000860
:1000D00089230008C91D0008DD1D000889230008C8
:1000E0008923000889230008892300088923000840
:1000F0008923000889230008892300088923000830
:10010000892300088923000889230008892300081F
:100110008923000889230008F11D000889230008AD
:1001200089230008892300088923000889230008FF
:1001300089230008051E0008892300088923000878
:1001400089230008892300088923000889230008DF
:1001500089230008892300088923000889230008CF
:1001600089230008892300088923000889230008BF
:100170008923000889230008892300080000000063
:0801800089230008892300080F
:1001900010B5054C237833B9044B13B10448AFF3C1
:1001A00000800123237010BD90000020000000009B
:1001B000DC99010808B5034B1BB103490348AFF3B1
:1001C000008008BD0000000094000020DC990108B8
:1001D000034613F8012B002AFBD1181A0138704787
:1001E00001F0FF01102A2BDB10F0070F08D010F8E8
:1001F000013B013A8B422DD010F0070F42B3F6D1EC
:10020000F0B441EA012141EA014122F007047FF004
:1002100000070023F0E80256083C85EA010586EA5B
:10022000010685FA47F5A3FA87F586FA47F6A5FA97
:1002300087F68EB9EED1F0BC01F0FF0102F00702A3
:1002400032B110F8013B013A83EA010313B1F8D14E
:100250000020704701387047002D06BF354603382F
:10026000073815F0010F07D1013015F4807F02BF68
:10027000013015F4C03F0130F0BC0138704700BFB9
:1002800081F0004102E000BF83F0004330B54FEA47
:1002900041044FEA430594EA050F08BF90EA020FB4
:1002A0001FBF54EA000C55EA020C7FEA645C7FEA47
:1002B000655C00F0E2804FEA5454D4EB5555B8BF6A
:1002C0006D420CDD2C4480EA020281EA030382EADB
:1002D000000083EA010180EA020281EA0303362D6D
:1002E00088BF30BD11F0004F4FEA01314FF4801C40
:1002F0004CEA113102D0404261EB410113F0004F52
:100300004FEA03334CEA133302D0524263EB430308
:1003100094EA050F00F0A780A4F10104D5F1200EA6
:100320000DDB02FA0EFC22FA05F2801841F1000101
:1003300003FA0EF2801843FA05F359410EE0A5F1D5
:1003400020050EF1200E012A03FA0EFC28BF4CF006
:10035000020C43FA05F3C01851EBE37101F00045BC
:1003600007D54FF0000EDCF1000C7EEB00006EEBC9
:100370000101B1F5801F1BD3B1F5001F0CD3490853
:100380005FEA30004FEA3C0C04F101044FEA4452AA
:1003900012F5800F80F09A80BCF1004F08BF5FEA31
:1003A000500C50F1000041EB045141EA050130BD11
:1003B0005FEA4C0C404141EB0101013C28BFB1F523
:1003C000801FE9D291F0000F04BF01460020B1FA6E
:1003D00081F308BF2033A3F10B03B3F120020CDA41
:1003E0000C3208DD02F1140CC2F10C0201FA0CF01F
:1003F00021FA02F10CE002F11402D8BFC2F1200C84
:1004000001FA02F120FA0CFCDCBF41EA0C01904039
:10041000E41AA2BF01EB0451294330BD6FEA040482
:100420001F3C1CDA0C340EDC04F11404C4F120026D
:1004300020FA04F001FA02F340EA030021FA04F37F
:1004400045EA030130BDC4F10C04C4F1200220FAD6
:1004500002F001FA04F340EA0300294630BD21FA14
:1004600004F0294630BD94F0000F83F4801306BFDA
:1004700081F480110134013D4EE77FEA645C18BFCE
:100480007FEA655C29D094EA050F08BF90EA020F65
:1004900005D054EA000C04BF1946104630BD91EA5D
:1004A000030F1EBF0021002030BD5FEA545C05D160
:1004B0004000494128BF41F0004130BD14F580049F
:1004C0003CBF01F5801130BD01F0004545F0FE4113
:1004D00041F470014FF0000030BD7FEA645C1ABF48
:1004E000194610467FEA655C1CBF0B46024650EA7F
:1004F000013406BF52EA033591EA030F41F40021AB
:1005000030BD00BF90F0000F04BF0021704730B530
:100510004FF4806404F132044FF000054FF0000105
:1005200050E700BF90F0000F04BF0021704730B5C6
:100530004FF4806404F1320410F0004548BF40429B
:100540004FF000013EE700BF42004FEAE2014FEAF0
:1005500031014FEA02701FBF12F07F4393F07F4FCB
:1005600081F06051704732F07F4208BF704793F0CE
:100570007F4F04BF41F40021704730B54FF46074E1
:1005800001F0004521F000411CE700BF50EA0102E4
:1005900008BF704730B54FF000050AE050EA01028D
:1005A00008BF704730B511F0004502D5404261EBFD
:1005B00041014FF4806404F132045FEA915C3FF43E
:1005C000D8AE4FF003025FEADC0C18BF03325FEADB
:1005D000DC0C18BF033202EBDC02C2F1200300FA8C
:1005E00003FC20FA02F001FA03FE40EA0E0021FAB1
:1005F00002F11444BDE600BF4FF0FF3C06E000BF2F
:100600004FF0010C02E000BF4FF0010C4DF804CD9B
:100610004FEA410C7FEA6C5C4FEA430C18BF7FEA5B
:100620006C5C1BD001B050EA410C0CBF52EA430C89
:1006300091EA030F02BF90EA020F0020704710F109
:10064000000F91EA030F58BF994208BF90422CBF98
:10065000D8176FEAE37040F0010070474FEA410C91
:100660007FEA6C5C02D150EA013C07D14FEA430CAF
:100670007FEA6C5CD6D152EA033CD3D05DF8040B20
:10068000704700BF8446104662468C461946634652
:1006900000E000BF01B5FFF7B7FF002848BF10F129
:1006A000000F01BD4DF808EDFFF7F4FF0CBF01206E
:1006B00000205DF808FB00BF4DF808EDFFF7EAFFEA
:1006C00034BF012000205DF808FB00BF4DF808EDA5
:1006D000FFF7E0FF94BF012000205DF808FB00BF9A
:1006E0004DF808EDFFF7CEFF94BF012000205DF824
:1006F00008FB00BF4DF808EDFFF7C4FF34BF012031
:1007000000205DF808FB00BF4FEA410212F500121D
:1007100015D211D56FF47873B3EB625212D94FEA48
:10072000C12343F0004343EA505311F0004F23FA32
:1007300002F018BF404270474FF00000704750EA87
:10074000013005D111F0004008BF6FF00040704744
:100750004FF00000704700BF53B94AB9002908BFE5
:1007600000281CBF4FF0FF314FF0FF3000F06AB996
:10077000ADF1080C6DE904CE00F006F8DDF804E0F8
:10078000DDE9022304B070472DE9F047089D0C46CF
:10079000002B4ED194468C458646B2FA82F262D93D
:1007A0004AB1C2F12003914020FA03F30CFA02FC93
:1007B000194300FA02FE4FEA1C471FFA8CF6B1FB00
:1007C000F7F44FEA1E4307FB141143EA014304FB0D
:1007D00006F199420AD91CEB030304F1FF3080F0C3
:1007E0001281994240F20F81023C6344591A1FFA68
:1007F0008EF3B1FBF7F007FB101143EA014300FB56
:1008000006F69E420AD91CEB030300F1FF3180F08B
:10081000FC809E4240F2F980634402389B1B40EA10
:10082000044000211DB1D3400022C5E90032BDE8DB
:10083000F0878B4205D90DB1C5E9000100210846BA
:10084000F5E7B3FA83F1002946D1A34202D39042DF
:10085000C0F0F080861A64EB03030120002DE6D07F
:10086000C5E90063E3E7002A40F09080A1EB0C04A7
:100870004FEA1C481FFA8CF70121B4FBF8F64FEA47
:100880001E4308FB164443EA044307FB06F0984264
:1008900008D91CEB030306F1FF3402D2984200F2A0
:1008A000CD8026461C1A1FFA8EF3B4FBF8F008FB25
:1008B000104443EA044300FB07F79F4208D91CEBAE
:1008C000030300F1FF3402D29F4200F2B0802046C1
:1008D000DB1B40EA0640A5E7C1F120068B4022FA67
:1008E00006F71F4320FA06FC04FA01F343EA0C035F
:1008F000F44000FA01F8380C4FEA1349B4FBF0FE5B
:100900001FFA87FC00FB1E4449EA04440EFB0CF965
:10091000A14502FA01F20AD93C190EF1FF3A80F022
:100920008480A14540F28180AEF1020E3C44A4EBEC
:1009300009041FFA83F9B4FBF0F300FB134449EAFE
:10094000044403FB0CFCA44507D93C1903F1FF3018
:1009500067D2A44565D9023B3C4443EA0E40A0FB64
:100960000293A4EB0C049C42CE469C4651D34ED03D
:1009700055B1B8EB0E0364EB0C0404FA06F6CB4059
:100980001E43CC40C5E90064002150E7C2F12003BA
:1009900020FA03F10CFA02FC24FA03F394400C430E
:1009A0004FEA1C4800FA02FE1FFA8CF7B3FBF8F07E
:1009B00008FB1031230C43EA014300FB07F1994285
:1009C00008D91CEB030300F1FF362CD299422AD937
:1009D000023863445B1AA4B2B3FBF8F108FB11338D
:1009E00044EA034401FB07F3A34208D91CEB0404C7
:1009F00001F1FF3613D2A34211D902396444E41A3B
:100A000041EA004139E70446F0E6084606E7C845F2
:100A1000AED2B9EB020E63EB070C0138A8E7314602
:100A2000EDE7034699E73046D4E7D6467FE76344CF
:100A300002384DE70646234608460FE7023E634468
:100A400030E700BF704700BF80B500AF0122012131
:100A500048F2050000F04EF800BF80BD80B483B0BE
:100A600000AF0346FB80FB885B101AB245F255537A
:100A700013401AB2FB885B001BB223F4AA4323F095
:100A800055031BB213431BB2FB80FB889B101AB2A9
:100A900043F2333313401AB2FB889B001BB223F49A
:100AA0004C5323F033031BB213431BB2FB80FB8870
:100AB0001B111AB240F60F7313401AB2FB881B01C8
:100AC0001BB223F4706323F00F031BB213431BB25A
:100AD000FB80FB881B0A9BB21AB2FB881B021BB26D
:100AE00013431BB2FB80FB8818460C37BD465DF8EC
:100AF000047B704780B588B000AF0346B9607A6068
:100B0000FB810023FB6139E0BB68002B08D0FB6947
:100B10009BB21846FFF7A2FF03461B0A9BB201E0F7
:100B2000FB699BB27B8310237B6112E0B7F91A301B
:100B3000002B08DA7B8B5B001AB2B7F90E305340FA
:100B40001BB27B8302E07B8B5B007B837B69013B79
:100B50007B617B69002BE9DC7B68002B06D07B8BFB
:100B60001846FFF77BFF0346194600E0798B074ADA
:100B7000FB6922F81310FB690133FB61FB69FF2B52
:100B8000C2DD00BF00BF2037BD4680BDAC000020E5
:100B900080B485B000AF786039604FF6FF73FB8199
:100BA00011E07B685A1C7A601A78FB89DBB25340EB
:100BB0007B73FB891B0AFB817B7B094A32F813207C
:100BC000FB895340FB813B685A1E3A60002BE8D1F9
:100BD000FB8918461437BD465DF8047B704700BF9B
:100BE000AC00002080B500AF00F002F800BF80BD6F
:100BF00080B584B000AF094B1B68FB60FB68BB602D
:100C0000074B1B687B607B6883F3088800BFBB6869
:100C1000984700BF1037BD4680BD00BF04000608DE
:100C20000000060880B58AB000AF78607B6807EEE8
:100C3000903AF8EEE77A9FED1D7AC7EE876A16EED6
:100C4000900AFFF781FC02460B4643EC102B18F08C
:100C50003BFE53EC102B10461946FFF755FD03469B
:100C60007B620023FB6003F03DF900233B61072317
:100C7000BB617B6AFB6101237B6102233B6207F15D
:100C80000C0207F110031146184603F08DFA0346D3
:100C9000002B03D003F048F9012302E003F044F9EC
:100CA000002318462837BD4680BD00BF000000481D
:100CB000B0B586B000AFF860B9607A6003F012F9A1
:100CC00000237B611EE07A687B69134403F10061B5
:100CD00001F5C0217B69FA6813441B78DBB200225E
:100CE0001C46154622462B46002003F0A7F8034673
:100CF000002B04D003F018F94FF0FF3309E07B69B3
:100D000001337B617A69BB689A42DCDB03F00CF942
:100D1000002318461837BD46B0BD000080B584B02A
:100D200000AF78600B467B807B6893F8A432012B80
:100D30004FD17B88002B4CD02A4B00221A801CE01C
:100D400001222949294804F066FD294B1B68254AE0
:100D500012881146274A11440022184607F0A2FAC9
:100D60000346012B03D0012006F0AAFB05E01D4B32
:100D70001B8801339AB21B4B1A807B880133194AB6
:100D800012889342DCDA7B881A4AD35C1B029BB23E
:100D90007A88013217498A5C1344FB817B881946A3
:100DA0001448FFF7F5FE03461A46FB8993420DD11E
:100DB00079887B68D3F898321A460E48FFF778FF97
:100DC0000346002B08D04FF0FF3307E06FF001031C
:100DD00004E06FF0020301E000BF00231846103763
:100DE000BD4680BDA4040020B804002020160020C9
:100DF000B0040020AC02002080B400AFBFF34F8FDE
:100E000000BF064BDB6803F4E0620449044B134364
:100E1000CB60BFF34F8F00BF00BFFDE700ED00E0E8
:100E20000400FA0580B586B002AFF860B9607A6058
:100E30003B60BB6900933B687A68B968F86800F06A
:100E400005F800BF1037BD4680BD000080B588B0F2
:100E500000AFF860B9607A603B60BB6A3A681344DF
:100E6000A549184601F0B2F80346002B16D0BB6A1C
:100E70003A6813441A46A149786817F00FF8786861
:100E800001F0F0F89E4A9F49B86817F007F8FB6830
:100E90001B68B968184601F027F93CE0BB6A3A685C
:100EA00013449949184601F091F80346002B0DD0E0
:100EB000964B1B681A469649B86816F0EFFFFB6818
:100EC0001B68B968184601F00FF924E0BB6A3A685C
:100ED00013449049184601F079F80346002B1AD0C4
:100EE00001F03EF80346002B08D1012001F044F840
:100EF00089494FF4977001F0F7F80CE001F030F8F1
:100F00000346012B07D1002001F036F883494FF446
:100F1000977001F0E9F8BB6A3A68134480491846B3
:100F200001F054F80346002B5AD00023FB61BB6A42
:100F30003A68D018FB6803F528731A46794916F009
:100F4000CDFFBB6A3A6813441A466C49786816F0BC
:100F5000A5FF786801F086F8FB68D3F8A032B3F5F6
:100F6000C02F04D2FB68D3F8A032002B02D16FF05F
:100F70000103FB61FB69002B06D1FB68D3F8A032AB
:100F80001846FFF74FFEF861FB69002B04D1FB68A0
:100F9000012283F8A42203E0FB68022283F8A42242
:100FA000FB680022C3F89822FB680022C3F89C2249
:100FB000FB69002B08D1FB68D3F8A0321A465A49C6
:100FC000B86816F06BFF04E0FA695749B86816F084
:100FD00065FFFB681B68B968184601F085F8F2E008
:100FE000BB6A3A6813445149184600F0EFFF0346C4
:100FF000002B5CD00023BB6100237B6100233B619D
:10100000BB6A3A6813441A463C49786816F046FFB2
:10101000786801F027F8BB6A3A68D01807F1140322
:1010200007F11002424916F059FFFB68D3F89C32D1
:101030007A6993422FD1FB6893F8A432012B2AD10D
:101040003B699BB21946F868FFF768FEB861BB6957
:10105000002B20D1FB68D3F89C325A1CFB68C3F8E4
:101060009C22FB68D3F898323A691A44FB68C3F8AB
:101070009822FB68D3F89822FB68D3F8A0329A42F2
:1010800007D9FB68022283F8A4226FF00303BB6137
:1010900001E00023BB61BA692649B86816F0FEFE7C
:1010A000FB681B68B968184601F01EF88BE0BB6A44
:1010B0003A6813442049184600F088FF0346002B85
:1010C0003ED0BB6A3A6813441A460C49786816F059
:1010D000E5FE786800F0C6FFFB68D3F89C321A463C
:1010E0001649B86816F0DAFEFB681B68B96818463E
:1010F00000F0FAFF67E000BF709A0108789A0108D3
:10110000909A01089C9A0108A89A01080000002002
:10111000B09A0108BC9A0108C49A0108D89A01083B
:10112000EC9A0108F49A0108009B01080C9B010845
:10113000149B0108249B0108309B0108389B01087F
:10114000BB6A3A6813442249184600F03FFF034641
:10115000002B18D0BB6A3A6813441A461D497868B8
:1011600016F09CFE786800F07DFF1B4B01221A6090
:101170001A49B86816F092FEFB681B68B9681846F1
:1011800000F0B2FF1FE0BB6A3A68134414491846E6
:1011900000F01CFF0346002B15D0BB6A3A681344CD
:1011A0001049184616F09AFE0F49B86816F076FEF8
:1011B000FB681B68B968184600F096FF0B4B0022CD
:1011C0001A60FFF719FE00BF2037BD4680BD00BF83
:1011D000489B0108789A010864070020549B010885
:1011E000609B0108789B0108949B010800F0012096
:1011F00080B400AFBFF34F8F00BF064BDB6803F432
:10120000E0620449044B1343CB60BFF34F8F00BF30
:1012100000BFFDE700ED00E00400FA0580B485B0F2
:1012200000AFF860B9607A60FB68074A1A60BB6873
:10123000064A1A607B6880221A6000BF1437BD46D8
:101240005DF8047B704700BF700700201008002085
:10125000B0B58EB000AF00220121052006F04BFD95
:101260000346264A136000220121142006F043FDA4
:101270000346234A1360002201214FF47A7006F0DE
:101280003AFD03461F4A136000220121082006F0A0
:1012900032FD03461C4A1360002201214FF47A708C
:1012A00006F029FD0346174A1360184B07F11C048A
:1012B0001D460FCD0FC495E8070084E8070007F12D
:1012C0001C030021184606F0AFF80346104A1360CD
:1012D000104B3C461D460FCD0FC495E8070084E82F
:1012E00007003B460021184606F09EF803460A4ACE
:1012F000136000BF3837BD46B0BD00BFA804002052
:10130000AC040020B0040020B4040020BC9B010801
:1013100068070020E49B01086C07002080B5ADF54C
:10132000BF6D02AF07F5BE63A3F2EC53186005F082
:10133000EDF94B4BC7F8EC35D7F8EC35002283F8C4
:10134000A422FFF781FB06F05FF80346C7F8E835F3
:10135000444B1B68C7F8E435424B1B68012B12D085
:1013600006F052F80246D7F8E835D31A41F2707207
:10137000934208D93C4B1B68002B04D1394B002207
:101380001A60FFF735FF01223849394804F043FA63
:1013900001223849384804F03EFA384B1868384B77
:1013A0001B68384A13440022194606F07BFF0346A7
:1013B000012B4AD1324B1B68324AD35C0D2B05D02E
:1013C0002F4B1B682F4AD35C0A2B18D12C4B1B6860
:1013D00001332C4A0021D154294B1B68012B0ADD13
:1013E00007F5FE7207F1080100230093254BD7F89B
:1013F000EC05FFF717FD224B00221A6028E0204B76
:101400001B6840F2E53293421BDC1D4B1B681D4AF2
:10141000D35C082B09D11A4B1B68002B05DD184B38
:101420001B68013B164A136012E0154B1B68154AF6
:10143000D35C082B0CD0124B1B680133104A13608D
:1014400006E00F4B00221A6002E0012006F038F897
:1014500000F0B0FD0246D7F8EC351A6078E700BF1F
:10146000BC04002000F0012064070020B804002024
:1014700020160020B904002068160020B0040020C7
:10148000100A0020140A002080B582B000AF7860F6
:101490004FF47A7006F014F80249034800F0CAF9D4
:1014A000FAE700BFAC040020B004002080B584B08F
:1014B00000AF78600023FB607B68174A934211D12C
:1014C000164B186807F10C020023154906F0BCFD05
:1014D00001221349104804F09EF940F22D1000F04B
:1014E00059FD14E07B680F4A934210D10B4B1868EA
:1014F00007F10C0200230C4906F0A6FD01220A495F
:10150000084804F088F940F22F1000F043FD00BFB6
:101510001037BD4680BD00BF20160020B00400205B
:10152000B804002068160020B904002080B58CB0F3
:1015300000AF07F11C0300221A605A609A60DA605B
:101540001A610023BB61634B1B6B624A43F080034B
:101550001363604B1B6B03F08003BB61BB6900230B
:101560007B615C4B1B6B5B4A43F004031363594B79
:101570001B6B03F004037B617B6900233B61554BCC
:101580001B6B544A43F001031363524B1B6B03F074
:1015900001033B613B690023FB604E4B1B6B4D4AD3
:1015A00043F0020313634B4B1B6B03F00203FB601E
:1015B000FB680023BB60474B1B6B464A43F010039C
:1015C0001363444B1B6B03F01003BB60BB68002329
:1015D0007B60404B1B6B3F4A43F0080313633D4B5A
:1015E0001B6B03F008037B607B6800233B60394B77
:1015F0001B6B384A43F040031363364B1B6B03F0FD
:1016000040033B603B6800220721334803F08AF81F
:1016100000224FF49C51314803F084F800224FF42B
:1016200000612F4803F07EF80723FB6101233B6232
:1016300000237B620023BB6207F11C031946264886
:1016400002F0D4FE4FF4C043FB6100233B62002351
:101650007B6207F11C031946224802F0C7FE4FF4D3
:101660009C53FB6101233B6200237B620023BB622E
:1016700007F11C031946194802F0B8FE4FF4A053B5
:10168000FB6100233B6200237B6207F11C031946C8
:10169000134802F0ABFE4FF40063FB6101233B6291
:1016A00000237B620023BB6207F11C0319460C4830
:1016B00002F09CFE01220721074803F033F80122C3
:1016C0004FF46071054803F02DF800BF3037BD4678
:1016D00080BD00BF00380240000402400008024004
:1016E000001802400010024080B582B000AF0F4BDE
:1016F0001B687B607B68002B04D10C4B00221A60B6
:10170000FFF770FA00F048FF00F012F84FF4FA60AB
:1017100000F084FFFFF70AFF00F02CFD00F054FDFD
:10172000FFF796FD05F069FE00BFFDE700F0012020
:1017300080B594B000AF07F1200330220021184695
:1017400016F0FAFC07F10C0300221A605A609A6046
:10175000DA601A610023BB60284B1B6C274A43F0F8
:1017600080531364254B1B6C03F08053BB60BB6834
:1017700000237B60224B1B68214A43F480431360A3
:101780001F4B1B6803F480437B607B6802233B6232
:101790000123FB6210233B630223BB630023FB6333
:1017A00008233B64A8237B640223BB640423FB64FB
:1017B00007F12003184602F0E9FF0346002B01D091
:1017C00000F032F80F23FB6002233B6100237B61B2
:1017D0004FF4A053BB614FF48053FB6107F10C033E
:1017E0000521184603F04AFA0346002B01D000F009
:1017F0001BF800BF5037BD4680BD00BF0038024017
:101800000070004080B582B000AF78607B681B68D4
:10181000044A934201D100F0E1FE00BF0837BD4603
:1018200080BD00BF0010004080B400AF72B600BFA2
:1018300000BFFDE790B5BDB002AF78603960F52319
:1018400087F8E730F52387F8E630F52387F8E530A9
:10185000F52387F8E430002387F8E3300023C7F846
:10186000DC30B44B1B6807F10B010022184606F070
:1018700019FD0346012B0FD1FB7A1A4607F110031D
:10188000AD49184616F00AFB07F11003184600F0A0
:10189000E9FBFB7A87F8E33097F8E330012B40F05F
:1018A0005F81A64B1B68002B07D10022002110206E
:1018B00008F0D0FD0346A14A136097F9E730002BEA
:1018C00038D09E4B1B6841F6C6620021184608F0CE
:1018D0007BFE034687F8E730994B1B68DBB219465D
:1018E000974B1B681B0ADBB21C46954B1B681B0CF5
:1018F000DBB21A46924B1B681B0EDBB207F11000DD
:101900000193009223460A468E4916F0C7FA07F162
:101910001003184600F0A6FB07F1100341F6C6625B
:101920008949184616F0BAFA07F11003184600F074
:1019300099FB30E197F9E530002B16D07F4B1B68FF
:10194000FF21184608F078FE034687F8E53007F1D6
:10195000100341F6C6627D49184616F09FFA07F15A
:101960001003184600F07EFB15E197F9E630002BD6
:1019700050D0724B1B6893F82020704B1B6842F0CC
:101980000202D2B283F820206C4B1B68C822DA61B5
:101990006A4B1B686E49184608F07AFE034687F8C2
:1019A000E63097F9E630002B40F0F580002000F09B
:1019B000E3FA674B1B68C822DA61654B1B685B68FA
:1019C0005B68DBB21946624B1B685B685B681B0A8D
:1019D000DBB21C465E4B1B685B685B681B0CDBB2B2
:1019E0001A465B4B1B685B685B681B0EDBB207F13A
:1019F00010000193009223460A46564916F04EFA0B
:101A000007F11003184600F02DFB05F0FDFCC7F8A8
:101A1000DC00C0E04FF4977000F0BCFA4C4B1B6840
:101A200007F10C021146184609F056F8034687F8EC
:101A3000E430FB68002B3CD097F9E430002B56D102
:101A4000FB681B685B89002B51D00023C7F8D83096
:101A500010E07B681868FB681B685A68D7F8D830B4
:101A6000D1180023002206F0EDF9D7F8D830013361
:101A7000C7F8D830FB681B685B891A46D7F8D8309E
:101A80009342E6DBC923FB723B68186807F10B0140
:101A90000023002206F0D6F9FB6818460AF0CAFDBA
:101AA000FB6818460AF0A6FD05F0AEFCC7F8DC009E
:101AB0001DE000F055FA0346012B0CD105F0A4FC03
:101AC0000246D7F8DC30D31A234A93420FD9F123C8
:101AD00087F8E4300BE005F097FC0246D7F8DC30DD
:101AE000D31AB3F5FA4F02D9F12387F8E43097F906
:101AF000E43013F10B0F04D097F9E43013F10F0F1A
:101B000049D1164800F0AEFA97F8E43087F8E6308D
:101B10000F4B1B68002B3ED00D4B1B68184609F07D
:101B200057F90B4B1B68184608F032FD084B002292
:101B30001A6030E0A8040020009C0108E411002095
:101B400008170020289C0108509C0108609C01088F
:101B5000E81100208C9C010880EE3600B89C01083A
:101B60000F4B1B68002B10D0FB6818460AF042FD93
:101B70000B4B1B68184609F02BF9094B1B681846DC
:101B800008F006FD064B00221A60F52387F8E630C0
:101B9000F52387F8E430012005F092FC61E600BFF0
:101BA000E811002080B584B000AF78600023BB60EE
:101BB0007B6893F82D309B0803F00103DBB2002B08
:101BC0000BD00123FB7378680BF05EFE01224FF40B
:101BD0008041124802F0A6FD0AE00023FB737868FA
:101BE0000BF0BEFE00224FF480410C4802F09AFD3B
:101BF0004FF40041094802F0AEFD094800F042FFF1
:101C0000084B186807F1080207F10F01002306F0DE
:101C10001BFA00BF1037BD4680BD00BF000C02405C
:101C2000F4610020A804002080B400AF034B1B68BF
:101C30001846BD465DF8047B704700BFE8110020E0
:101C400080B582B000AF00237B60124B5B6C114A01
:101C500043F4804353640F4B5B6C03F480437B601D
:101C60007B6800233B600B4B1B6C0A4A43F080539C
:101C70001364084B1B6C03F080533B603B680022ED
:101C80000F216FF0010000F0A5FD00BF0837BD4631
:101C900080BD00BF0038024080B58EB000AF7860D4
:101CA0000023FB620023BB620023FB60334B1B6CF1
:101CB000324A43F010031364304B1B6C03F01003E3
:101CC000FB60FB6807F1100207F114031146184688
:101CD00003F0F2F93B6AFB62FB6A002B03D103F0CD
:101CE000C3F9786304E003F0BFF903465B007B634C
:101CF0007B6B234AA2FB03239B0C013BBB62214B62
:101D0000214A1A601F4B40F2E732DA601D4ABB6A73
:101D100053601C4B00221A611A4B00229A60194B27
:101D200000229A61174803F0F9F9034687F8333027
:101D300097F83330002B1BD1124803F049FA0346C1
:101D400087F8333097F83330002B11D1362000F06C
:101D50005DFD7B680F2B08D800227968362000F0E3
:101D600039FD0A4A7B68136002E0012387F83330AB
:101D700097F8333018463837BD4680BD00380240EA
:101D800083DE1B43EC1100200010004008000020FF
:101D900080B400AF00BFFDE780B400AF00BFFDE737
:101DA00080B400AF00BFFDE780B400AF00BFFDE727
:101DB00080B400AF00BFFDE780B400AF00BFBD46F8
:101DC0005DF8047B7047000080B500AF024803F067
:101DD00047FD00BF80BD00BF2016002080B500AFCA
:101DE000024803F03DFD00BF80BD00BF6816002023
:101DF00080B500AF024803F05BFA00BF80BD00BFB2
:101E0000EC11002080B500AF024801F02DF900BFB1
:101E100080BD00BFF461002080B400AF01231846EC
:101E2000BD465DF8047B704780B483B000AF786036
:101E30003960054B16221A604FF0FF3318460C37F5
:101E4000BD465DF8047B7047D013012080B582B099
:101E500000AF78604FF0FF317868FFF7E5FF00BF13
:101E6000FDE780B586B000AFF860B9607A60002306
:101E70007B610AE0AFF300800146BB685A1CBA6080
:101E8000CAB21A707B6901337B617A697B689A42B6
:101E9000F0DB7B6818461837BD4680BD80B586B03C
:101EA00000AFF860B9607A6000237B6109E0BB682D
:101EB0005A1CBA601B781846AFF300807B69013367
:101EC0007B617A697B689A42F1DB7B681846183738
:101ED000BD4680BD80B483B000AF78604FF0FF3363
:101EE00018460C37BD465DF8047B704780B483B05C
:101EF00000AF786039603B684FF400525A600023AD
:101F000018460C37BD465DF8047B704780B483B03B
:101F100000AF7860012318460C37BD465DF8047B9E
:101F2000704780B485B000AFF860B9607A60002374
:101F300018461437BD465DF8047B704780B400AF87
:101F4000064BD3F88830054A43F47003C2F8883052
:101F500000BFBD465DF8047B704700BF00ED00E0A8
:101F600080B400AF034B1B681846BD465DF8047B88
:101F7000704700BF1C16002080B483B000AF7860AB
:101F8000034A7B6813600C37BD465DF8047B7047DD
:101F90001C16002080B483B000AF7860044A7B68D0
:101FA000136000BF0C37BD465DF8047B704700BF6F
:101FB000BC04002080B400AF034B1B681846BD462C
:101FC0005DF8047B704700BFBC04002080B584B07E
:101FD00000AF786039607B68002B02D03B68002B33
:101FE00008D11B4815F052FF1A4B1B4A40211B48D1
:101FF00015F038FD3868FEF7EBF80346BB60BB68A8
:10200000B3F57A7F08DD164815F040FF114B124AF0
:102010004221124815F026FD0023FB600EE0FB680C
:102020007A6813441A78FB6839680B441B789A4223
:1020300001D0002307E0FB680133FB60FA68BB684E
:102040009A42ECDBBB6818461037BD4680BD00BF26
:10205000D09C0108E89C0108C4D20108EC9C01084E
:10206000009D010890B583B000AF786005F0CCF911
:1020700003461A4619491A4815F010FF1848FEF78A
:10208000A7F80346164A134400221A701448FEF7B4
:102090009FF804467868FEF79BF803462344B3F59F
:1020A0007A7F0AD20E48FEF793F803460C4A13448F
:1020B0007A680C49184615F0F1FE0948FEF788F8D1
:1020C0000346074A134400221A700549054815F0D3
:1020D00075FE00BF0C37BD4690BD00BF1C9D0108BA
:1020E00034120020289D010890B585B002AF7860B9
:1020F00039607B68B3F5977F13D1FFF795FD0346F1
:10210000002B2FD0FFF790FD04463868FEF760F8EB
:1021100002460023009301233968204608F056FD4B
:1021200020E07B6840F22D1293420BD13868FEF715
:102130004FF803469AB24FF4FA7339680B4803F02C
:10214000DFFA0FE07B6840F22F1293420AD1386821
:10215000FEF73EF803469AB24FF4FA733968044822
:1021600003F0CEFA00BF0C37BD4690BD201600200C
:102170006816002080B500AF114B124A1A60104B50
:102180004FF4E1325A600E4B00229A600C4B002251
:10219000DA600B4B00221A61094B0C225A61084B82
:1021A00000229A61064B0022DA61054803F058FAD2
:1021B0000346002B01D0FFF737FB00BF80BD00BFF7
:1021C000201600200010014080B500AF114B124ACC
:1021D0001A60104B4FF4E1325A600E4B00229A60A5
:1021E0000C4B0022DA600B4B00221A61094B0C22C7
:1021F0005A61084B00229A61064B0022DA610548B9
:1022000003F02EFA0346002B01D0FFF70DFB00BFB1
:1022100080BD00BF681600200044004080B58CB02F
:1022200000AF786007F11C0300221A605A609A60C0
:10223000DA601A617B681B683A4A934235D1002301
:10224000BB61394B5B6C384A43F010035364364B27
:102250005B6C03F01003BB61BB6900237B61324BF5
:102260001B6B314A43F0010313632F4B1B6B03F0CD
:1022700001037B617B694FF4C063FB6102233B6216
:1022800000237B620323BB620723FB6207F11C036D
:102290001946264802F0AAF800220521252000F060
:1022A00099FA252000F0B2FA38E07B681B68204AD2
:1022B000934233D100233B611B4B1B6C1A4A43F4FE
:1022C00000331364184B1B6C03F400333B613B6910
:1022D0000023FB60144B1B6B134A43F0080313638A
:1022E000114B1B6B03F00803FB60FB686023FB6171
:1022F00002233B6200237B620323BB620723FB6252
:1023000007F11C0319460B4802F070F80022052162
:10231000262000F05FFA262000F078FA00BF303760
:10232000BD4680BD00100140003802400000024060
:1023300000440040000C0240DFF834D00D480E4944
:102340000E4A002302E0D458C4500433C4188C420F
:10235000F9D30B4A0B4C002301E013600432A24274
:10236000FBD3FFF7EBFD15F091FFFFF7BDF97047C9
:1023700000000220000000209000002018D6010874
:1023800090000020E4130120FEE780B483B000AF8A
:10239000786039607B68002B0BD03B68DB68002BD2
:1023A00007D03B689B68002B03D03B681B69002B60
:1023B00002D14FF0FF3314E03B681A687B689A60E3
:1023C0003B685A687B68DA603B68DA687B685A6108
:1023D0003B689A687B681A613B681A697B689A61F6
:1023E000002318460C37BD465DF8047B704780B566
:1023F00086B000AF78600023FB6000237B61002380
:102400003B617B685B68002B39D17B689B68002B44
:1024100002D07B689B6898477B6820221A60002363
:102420007B611CE07B685B6907F10C02192178690C
:1024300098470346002B03DA6FF004033B610BE07F
:10244000FB6803F01F037A699A4205D17B687A69B9
:102450001A6000233B6105E07B6901337B617B6986
:102460001F2BDFD97B681B681F2B02D96FF002037B
:102470003B613B69002B02D17B6801225A603B69BA
:1024800018461837BD4680BD80B584B000AF78606F
:102490000023FB607B685B697A68106807F10C02B7
:1024A000012198470346002B02DA6FF004036EE027
:1024B0007B685B697A68106807F10C020121984714
:1024C0000346002B02DA6FF0040360E0FB6803F0C0
:1024D0000403002B01D1012359E07B685B697A6812
:1024E000106807F10C02002198470346002B02DA1E
:1024F0006FF004034BE0FB6803F48053002B1BD107
:10250000FB6803F40053002B06D0FB6803F48073D0
:10251000002B01D002233AE0FB6803F40053002BA8
:1025200001D0032333E0FB6803F48073002B01D058
:1025300004232CE005232AE07B685B697A68106835
:1025400007F10C02102198470346002B02DA6FF0C6
:1025500004031CE0FB6803F01003002B01D10623E9
:1025600015E0FB6803F00603042B01D102230EE003
:10257000FB6803F00603002B01D1032307E0FB688F
:1025800003F00603062B01D1042300E005231846BF
:102590001037BD4680BD000080B500AF0E4B1B68F4
:1025A0000D4A43F4007313600B4B1B680A4A43F453
:1025B00080631360084B1B68074A43F48073136001
:1025C000032000F0FCF80020FFF766FBFFF738FB64
:1025D0000023184680BD00BF003C024080B400AF1D
:1025E000064B1B781A46064B1B681344044A1360BB
:1025F00000BFBD465DF8047B704700BF0C000020A3
:10260000B016002080B400AF034B1B681846BD46CF
:102610005DF8047B704700BFB016002080B584B021
:1026200000AF7860FFF7EEFFB8607B68FB60FB6887
:10263000B3F1FF3F05D00A4B1B781A46FB681344E1
:10264000FB6000BFFFF7DEFF0246BB68D31AFA68E3
:102650009A42F7D800BF00BF1037BD4680BD00BF0B
:102660000C00002080B485B000AF78607B6803F078
:102670000703FB600C4BDB68BB60BA684FF6FF03D7
:102680001340BB60FB681A02BB68134343F0BF638F
:1026900043F40033BB60044ABB68D36000BF143707
:1026A000BD465DF8047B704700ED00E080B400AFEC
:1026B000044BDB681B0A03F007031846BD465DF8B0
:1026C000047B704700ED00E080B483B000AF0346A8
:1026D000FB7197F90730002B0BDBFB7903F01F022E
:1026E000074997F907305B09012000FA02F241F827
:1026F000232000BF0C37BD465DF8047B704700BF48
:1027000000E100E080B483B000AF03463960FB71A4
:1027100097F90730002B0ADB3B68DAB20C4997F9CE
:1027200007301201D2B20B4483F800230AE03B6861
:10273000DAB20849FB7903F00F03043B1201D2B26D
:102740000B441A7600BF0C37BD465DF8047B70471A
:1027500000E100E000ED00E080B489B000AFF86077
:10276000B9607A60FB6803F00703FB61FB69C3F1A2
:102770000703042B28BF0423BB61FB690433062B2A
:1027800002D9FB69033B00E000237B614FF0FF327D
:10279000BB6902FA03F3DA43BB681A407B699A40CB
:1027A0004FF0FF317B6901FA03F3D9437B680B409B
:1027B000134318462437BD465DF8047B704780B547
:1027C00082B000AF78607868FFF74CFF00BF083731
:1027D000BD4680BD80B586B000AF0346B9607A6063
:1027E000FB7300237B61FFF761FF78617A68B9684A
:1027F0007869FFF7B1FF024697F90F301146184686
:10280000FFF780FF00BF1837BD4680BD80B582B09E
:1028100000AF0346FB7197F907301846FFF754FFE6
:1028200000BF0837BD4680BD80B584B000AF78607A
:102830007B689B6DFB60FFF7E5FEB8607B6893F8F3
:102840003530DBB2022B08D07B6880225A657B686A
:10285000002283F83420012352E07B681B681A6849
:102860007B681B6822F016021A607B681B685A6935
:102870007B681B6822F080025A617B681B6C002B0E
:1028800003D17B689B6C002B07D07B681B681A68A0
:102890007B681B6822F008021A607B681B681A6854
:1028A0007B681B6822F001021A6013E0FFF7AAFEA2
:1028B0000246BB68D31A052B0CD97B6820225A65C7
:1028C0007B68032283F835207B68002283F834205C
:1028D000032315E07B681B681B6803F00103002BD2
:1028E000E4D17B68DB6D3F229A40FB689A607B688D
:1028F000012283F835207B68002283F834200023EE
:1029000018461037BD4680BD80B483B000AF7860F4
:102910007B6893F83530DBB2022B04D07B688022D1
:102920005A6501230CE07B68052283F835207B681B
:102930001B681A687B681B6822F001021A6000237A
:1029400018460C37BD465DF8047B704780B584B0EF
:1029500000AF78607B68002B01D101238AE07B689F
:10296000D3F88430002B06D17B682322C3F884205F
:10297000786804F0F3FA0023BB60404B5B6C3F4A7D
:1029800043F4804353643D4B5B6C03F48043BB6072
:10299000BB683B4B5B683A4A23F400035360384BF7
:1029A0005A687B689B68364913434B60344B5B68BD
:1029B0007B681B6803F580531B687A68126843F0D4
:1029C000010302F580521360FFF71CFEF86011E06E
:1029D000FFF718FE0246FB68D31AB3F5FA7F09D950
:1029E0007B680422C3F888207B68E022C3F8842037
:1029F00001233FE07B681B6803F580531B6803F0ED
:102A00000103002BE4D1786800F05AFF786801F0E8
:102A100005F8786801F05BF87B685B681A4600216E
:102A2000786800F0C3FF7B681B68DA6B7B681B6803
:102A300042F40272DA637B681B68D3F80C317A685F
:102A4000126843F4003343F06003C2F80C317B6832
:102A50001B68D3F810217B681B6842F40312C3F88B
:102A600010217B680022C3F888207B681022C3F8FD
:102A70008420002318461037BD4680BD0038024030
:102A80000038014080B584B000AF78607B68D3F82F
:102A90008430102B61D17B682322C3F884207B68AB
:102AA00001229A657B680422DA66786800F0F4F9FE
:102AB0007B681B681B68FB600120FFF7AFFD7B682C
:102AC0001B68FA681A607B681B6803F580539B6972
:102AD0007A68126843F4005302F5805293617B6870
:102AE0001B6803F580539B697A68126843F0020300
:102AF00002F580529361786800F07EFD7B681B6868
:102B00001A687B681B6842F008021A607B681B68C1
:102B10001B68FB600120FFF781FD7B681B68FA687A
:102B20001A607B681B681A687B681B6842F00402A5
:102B30001A607B681B6803F58053DB697A6812684A
:102B400043F4D03343F0C10302F58052D3617B6874
:102B50002322C3F88420002300E001231846103705
:102B6000BD4680BD80B586B000AF78607B68D3F885
:102B70008430232B70D17B682322C3F884207B68A8
:102B80001B6803F58053DB697A68126823F4D0333D
:102B900023F0C10302F58052D3617B681B6803F503
:102BA00080539B697A68126823F4005302F58052BF
:102BB00093617B681B6803F580539B697A68126890
:102BC00023F0020302F5805293617B681B681A6848
:102BD0007B681B6822F004021A607B681B681B6814
:102BE0003B610120FFF71AFD7B681B683A691A6098
:102BF000786800F001FD7B681B681A687B681B68B9
:102C000022F008021A607B681B681B683B61012088
:102C1000FFF704FD7B681B683A691A6000237B613B
:102C20000EE07B687A69123253F82230FB60FB6851
:102C30005B6843F00042FB685A607B6901337B614B
:102C40007B69032BEDD97B6800229A657B68102293
:102C5000C3F88420002300E0012318461837BD463E
:102C600080BD80B582B000AF786039603B68002BD2
:102C700009D17B68D3F8883043F001027B68C3F840
:102C80008820012345E07B68D3F88430232B3FD193
:102C90003B685A6B7B68DA6301223968786800F018
:102CA00085FF0346002B09D07B68D3F8883043F0BA
:102CB00002027B68C3F8882001232AE0BFF34F8F0C
:102CC00000BF7B689B6A5A1C7B689A627B689B6A20
:102CD000032B04D97B689B6A1A1F7B689A627B6806
:102CE0001B6803F580535B6903F00403002B0DD0D0
:102CF0007B681B6803F580531A46042353617B6885
:102D00001B6803F580531A4600235360002300E03C
:102D1000012318460837BD4680BD80B588B000AF96
:102D20007860396000237B610023FB743B68002BD3
:102D300009D17B68D3F8883043F001027B68C3F87F
:102D400088200123A4E07B68D3F88430232B01D0B2
:102D500001239DE07B68DB6DFB617B68FA691232C1
:102D600053F82230BB617B68DB6EC3F10403FB6068
:102D700066E0BB691B6803F48073002B07D0BB6956
:102D8000DA697B689A67BB699A697B685A67BB692D
:102D90001B6803F40073002B03D17B68DB6F002BEF
:102DA0003CD0BB691B6803F40073002B05D07B6823
:102DB00000221A667B6800225A66BB691B681B0CDE
:102DC000C3F30D03BB60BB691B6803F48073002B66
:102DD00005D0BB691A687B681A670123FB74BB695D
:102DE0009A68BB691A627B6803F17C007B6803F117
:102DF0008001BB691B6A1A46BB689BB204F088FA63
:102E00007B681B6E5A1C7B681A667B685A6EBB68AF
:102E10001A447B685A66BB6900221A62FB69013357
:102E2000FB61FB69032B02D9FB69043BFB617B68F7
:102E3000FA69123253F82230BB617B6901337B613E
:102E4000BB691B68002B06DB7A69FB689A4202D2D9
:102E5000FB7C002B8DD07B68DA6E7B691A447B6823
:102E6000DA667B68DB6E002B02D0786800F014F81D
:102E70007B68FA69DA65FB7C012B08D17B68DA6F25
:102E80003B681A607B680022DA67002300E00123B8
:102E900018462037BD4680BD80B588B000AF786049
:102EA0000023BB600123FB747B689B6EFB617B6826
:102EB000FA69123253F822307B617B68DB6EBB61AA
:102EC00044E07B691B6A002B12D107F10803184606
:102ED00004F0EEF9BB68002B02D10023FB7407E07D
:102EE000BB681A467B691A62BB681A467B699A609E
:102EF000FB7C002B2AD07B689B6D002B08D17B6864
:102F00005B6943F0004343F480437A69536005E012
:102F10007B685B6943F480427B695A607B691B680C
:102F200043F000427B691A60FB690133FB61FB6976
:102F3000032B02D9FB69043BFB617B68FA691232FF
:102F400053F822307B61BB69013BBB61BB69002B3D
:102F500002D0FB7C002BB4D17B68DB6EBA699A424D
:102F60001AD0FB69013303F00303FB60BFF35F8FEB
:102F700000BF7B681969FA6813469B001344DB00A5
:102F8000CA187B681B6803F580539A607B68FA69EE
:102F90009A667B68BA69DA6600BF2037BD4680BD95
:102FA00080B586B000AF78607B681833BB60BB68C3
:102FB0009B6A7B61BB68DB6A3B610123FB7347E073
:102FC0000123BB737B69013B7B61BA683B690433B6
:102FD0009B0013445B68002B0AD13B6901333B61C2
:102FE0003B69032B02D93B69043B3B610023BB7364
:102FF000BB7B002B2CD07B68D9683A6913469B00B9
:103000001344DB000B441B68002B1FDBBA683B69D1
:1030100004339B0013445B68184604F0B9F9BA689E
:103020003B6904339B00134400225A603B6901331F
:103030003B613B69032B02D93B69043B3B61BB68A5
:103040007A699A62BB683A69DA6201E00023FB732D
:103050007B69002B02D0FB7B002BB1D100231846EB
:103060001837BD4680BD000080B586B000AF7860DF
:103070007B681B689B6B7B617B681B6803F58053D7
:103080005B693B617B681B6803F58053DB69FB6010
:103090004B4B5B69BB603B6903F04003002B0ED0D8
:1030A000FB6803F04003002B09D07B681B6803F525
:1030B00080531A46434B5361786803F07BFC3B69AD
:1030C00003F00103002B0FD0FB6803F00103002B7A
:1030D0000AD07B681B6803F580531A464FF0011332
:1030E0005361786803F076FC3B6903F40043002BDE
:1030F00042D0FB6803F40043002B3DD07B68D3F83B
:10310000883043F008027B68C3F888203B6903F4E9
:103110000053002B1AD07B681B6803F580535A6953
:10312000294B13407A68C2F88C307B681B6803F522
:103130008053DB697A68126823F4C03302F5805249
:10314000D3617B68E022C3F8842012E07B681B68AF
:1031500003F580535A6948F2806313407A68C2F8D5
:103160008C307B681B6803F580531A4648F28063F5
:103170005361786803F03EFC7B6903F00803002B81
:103180000ED07B681B68DB6A03F060027B68C3F8C3
:103190009420786800F01AF87B680022C3F8942025
:1031A000BB6803F40023002B06D0054B4FF400222C
:1031B0005A61786800F014F800BF1837BD4680BD2A
:1031C000003C01404000010000207E0080B483B03C
:1031D00000AF786000BF0C37BD465DF8047B7047D8
:1031E00080B483B000AF786000BF0C37BD465DF897
:1031F000047B704780B586B000AFF860B9607A6034
:103200003B60FB681B681B697B617B6903F01C03E7
:103210007B61BB68DB029BB27A6913437B617B688D
:103220009B0103F4F8637A6913437B617B6923F0A4
:1032300002037B617B6943F001037B61FB681B68D0
:103240007A691A61FFF7DEF938610DE0FFF7DAF904
:1032500002463B69D31AB3F5803F01D3012310E046
:10326000FB681B681B697B617B6903F00103002B12
:10327000ECD1FB681B685B699BB21A463B681A601D
:10328000002318461837BD4680BD80B586B000AF14
:10329000F860B9607A603B60FB681B681B697B6102
:1032A0007B6903F01C037B61BB68DB029BB27A691C
:1032B00013437B617B689B0103F4F8637A691343D2
:1032C0007B617B6943F002037B617B6943F001030F
:1032D0007B613B689AB2FB681B685A61FB681B689C
:1032E0007A691A61FFF78EF938610DE0FFF78AF904
:1032F00002463B69D31AB3F5803F01D3012309E0AD
:10330000FB681B681B697B617B6903F00103002B71
:10331000ECD1002318461837BD4680BD80B483B079
:1033200000AF786039603B68002B01D10123E6E0F3
:103330007B681B681B6803F01003002B14BF01237C
:103340000023DBB21A463B6883F828207B681B68A1
:103350001B6803F060023B685A627B681B681B684D
:1033600003F40073002B0CBF01230023DBB21A46C9
:103370003B6883F820207B681B681B6803F480335C
:10338000002B14BF01230023DBB21A463B68DA7717
:103390007B681B681B6803F40053002B0CBF0123E0
:1033A0000023DBB21A463B689A777B681B681B6870
:1033B00003F48053002B14BF01230023DBB21A4611
:1033C0003B681A777B681B681B6803F400623B68E4
:1033D0009A617B681B681B6803F480423B685A61F2
:1033E0007B681B681B6803F48003002B0CBF012360
:1033F0000023DBB21A463B685A747B681B681B6863
:1034000003F40003002B0CBF01230023DBB21A4698
:103410003B681A747B681B681B6803F08003002BF1
:1034200014BF01230023DBB21A463B68DA737B68C2
:103430001B681B6803F460223B689A607B681B680A
:103440001B6803F48063002B14BF01230023DBB24D
:103450001A463B681A717B681B681B6803F000738F
:10346000002B14BF01230023DBB21A463B689A737A
:103470007B681B689B6903F00203002B14BF0123C8
:103480000023DBB21A463B6883F854207B681B6834
:103490009B6903F08003002B0CBF01230023DBB2E8
:1034A0001A463B6883F84C207B681B689B6903F0D5
:1034B00030023B681A657B681B689B691B0C9AB2DB
:1034C0003B689A647B681B689B6903F00403002BCC
:1034D00014BF01230023DBB21A463B6883F8562051
:1034E0007B681B689B6903F00803002B14BF012352
:1034F0000023DBB21A463B6883F8552000231846A8
:103500000C37BD465DF8047B704780B582B000AFD4
:10351000786039603B68002B01D101230BE07B68A8
:10352000D3F88430102B05D13968786800F08AF818
:10353000002300E0012318460837BD4680BD000087
:1035400080B584B000AF78607B681B681B69FB6046
:10355000FB6823F01C03FB6001F07AFDB860BB68D8
:10356000144A934204D8FB6843F00803FB6019E057
:10357000BB68114A934204D2FB6843F00C03FB6022
:1035800010E0BB680D4A93420CD9BB680C4A9342C9
:1035900004D8FB6843F00403FB6003E0FB6843F0DE
:1035A0001003FB607B681B68FA681A6100BF103764
:1035B000BD4680BDBF0E160200879303FFE0F505F0
:1035C0007FD1F00880B483B000AF78607B68D3F817
:1035D000883018460C37BD465DF8047B704780B4D0
:1035E00083B000AF78607B68D3F88C3018460C3716
:1035F000BD465DF8047B704780B584B000AF78604D
:103600000023FB607B681B6803F580539B697A6825
:10361000126843F4801302F5805293617B681B6843
:1036200003F580539B69FB600120FEF7F7FF7B6881
:103630001A68FB6802F58052936100BF1037BD46DF
:1036400080BD000080B584B000AF786039607B68D1
:103650001B681B68FB60FA68534B1340FB603B68B8
:103660009B7B5B063A68127C002A02D14FF4000271
:1036700000E0002213433A68527C002A02D14FF442
:10368000800200E000221A433B689B681A433B68B3
:10369000DB7F1B041A433B685B6913433A68927FE4
:1036A000002A02D14FF4005200E000221A433B6886
:1036B0001B7F1B031A433B689B691A433B681B79BA
:1036C0009B0213433A6892F82020002A02D14FF45B
:1036D000007200E000221A433B68DB7BDB011A43E7
:1036E0003B685B6A1A433B6893F828301B0113431D
:1036F000FA681343FB607B681B68FA681A607B6892
:103700001B681B68FB600120FEF788FF7B681B6855
:10371000FA681A607B681B689B69FB60FA684FF661
:1037200041731340FB603B689B6C1B043A6892F842
:103730004C20002A01D1802200E000221A433B687D
:103740001B6D13433A6892F85520012A01D10822D3
:1037500000E0002213433A6892F85620012A01D172
:10376000042200E0002213433A6892F85420012A10
:1037700001D1022200E000221343FA681343FB60E8
:103780007B681B68FA689A617B681B689B69FB60B1
:103790000120FEF743FF7B681B68FA689A6100BF4F
:1037A0001037BD4680BD00BF0F8120FD80B584B0BD
:1037B00000AF786039607B681B6803F580539B69B4
:1037C000FB60FA683D4B1340FB603B681B7B002BA2
:1037D00002D14FF0806200E000223B685B7B5B0619
:1037E00013433A68527F002A02D14FF4801200E05E
:1037F00000221A433B689B7B5B051A433B685B696D
:103800001A433B681B7FDB011A433B689B7F9B018C
:103810001A433B681B6A1A433B6893F824309B00A9
:103820001343FA681343FB607B681B6803F58053FE
:103830001A46FB6893617B681B6803F580539B699C
:10384000FB600120FEF7EAFE7B681B6803F58053EE
:103850001A46FB6893613B681B795A063B689B6874
:103860001A433B689B691A433B681B691A433B68D0
:1038700093F82530DB011A433B689B6A9B001A438F
:103880003B681B6813437A68126843F4000302F52F
:10389000805213607B681B6803F580531B68FB60D4
:1038A0000120FEF7BBFE7B681B6803F580531A46B8
:1038B000FB68136000BF1037BD4680BD233FDEF8B4
:1038C00080B5A6B000AF7860012387F844300123AB
:1038D00087F845300023FB63002387F8533001232A
:1038E00087F85230002387F85030012387F84230A0
:1038F000012387F83830002387F85430002387F8F5
:1039000043300023BB65002387F85C300023FB674E
:10391000002387F880300023C7F88430002387F81D
:103920008A30002387F888304FF48043BB644FF41B
:103930000063FB64002387F8893007F134031946DC
:103940007868FFF77FFE01233B7501237B75012318
:1039500087F825300123BB750023FB61002387F81E
:103960002430002387F826300023BB62012387F828
:103970002C3001233B734FF480333B614FF48003C1
:103980003B624FF40053BB61012387F82D300023C5
:103990003B630023BB6007F1080319467868FFF713
:1039A00005FF00BF9837BD4680BD000080B487B0DA
:1039B00000AFF860B9607A607B6805331B781B0242
:1039C0007A680432127813437B61BA68114B13444E
:1039D0001A467B6913607B6803331B781A067B6881
:1039E00002331B781B041A437B6801331B781B02CC
:1039F00013437A68127813437B61BA68064B134409
:103A00001A467B69136000BF1C37BD465DF8047B16
:103A1000704700BF408002404480024080B485B0BF
:103A200000AF78600023FB603EE07B68D968FA68ED
:103A300013469B001344DB000B44BB60BB680022B1
:103A40001A60BB6800225A60BB6800229A60BB689B
:103A50000022DA60B9687B68FA68063243F82210FF
:103A6000BB681B6843F48012BB681A60FB68022BBA
:103A70000CD87B68D968FB685A1C13469B0013441A
:103A8000DB000B441A46BB68DA6004E07B68DB6845
:103A90001A46BB68DA60BB681B6843F44002BB6827
:103AA0001A60FB680133FB60FB68032BBDD97B68A0
:103AB00000229A627B68DA687B681B6803F5805392
:103AC0001A6100BF1437BD465DF8047B704780B4AF
:103AD00085B000AF78600023FB6048E07B6819691F
:103AE000FA6813469B001344DB000B44BB60BB68C1
:103AF00000221A60BB6800225A60BB6800229A60EC
:103B0000BB680022DA60BB6800221A62BB68002230
:103B10005A62BB684FF000421A607B685B6943F4ED
:103B20008042BB685A60BB685B6823F00042BB6898
:103B30005A60B9687B68FA68123243F82210FB6851
:103B4000022B0CD87B681969FB685A1C13469B0032
:103B50001344DB000B441A46BB68DA6004E07B6860
:103B60001B691A46BB68DA60FB680133FB60FB68BF
:103B7000032BB3D97B680022DA657B6800221A66C2
:103B80007B6800229A667B680022DA667B680022E6
:103B90009A657B681A697B681B6803F58053DA6055
:103BA00000BF1437BD465DF8047B704780B491B008
:103BB00000AFF860B9607A60FB6818337B627B6A9B
:103BC0001B69FB637B6A1B693B6200237B637B6A27
:103BD000FA6B53F822303B63BB689B68FB6200239F
:103BE000BB623B6B1B6803F00043B3F1004F07D08F
:103BF0007A6AFB6B04339B0013445B68002B01D093
:103C0000022315E17B6B01337B63FB6A1B681A4659
:103C10003B6B9A603B6B5B6823F4FF5323F01F03FD
:103C2000FA6A52681A433B6B5A60BB681B6803F020
:103C30000103002B08D03B6B1B6823F44002BB68D8
:103C40005B691A433B6B1A60BB681B6803F0200377
:103C5000002B08D03B6B1B6823F04062BB681B69DC
:103C60001A433B6B1A60BB681B6803F00403002B0C
:103C700005D03B6B1B6843F080023B6B1A603B6BCB
:103C80001B6843F080523B6B1A6084E03B6B1B68FF
:103C900023F000523B6B1A607B68002B06D03B6B15
:103CA0001B6843F080423B6B1A6005E03B6B1B686E
:103CB00023F080423B6B1A60FB6B0133FB63FB6BB1
:103CC000032B02D9FB6B043BFB637B6AFA6B53F853
:103CD00022303B633B6B1B6803F00043B3F1004FA2
:103CE00007D07A6AFB6B04339B0013445B68002B9C
:103CF00029D03B6AFB637B6AFA6B53F822303B6343
:103D00000023BB6319E0BFF35F8F00BF3B6B1B68F1
:103D100023F000423B6B1A60FB6B0133FB63FB6BD0
:103D2000032B02D9FB6B043BFB637B6AFA6B53F8F2
:103D300022303B63BB6B0133BB63BA6B7B6B9A4234
:103D4000E1D3022374E03B6B1B6823F080523B6B92
:103D50001A607B6B01337B63FB6A9B68FB62FB6AC7
:103D60001B681A463B6B9A603B6B5B6823F4FF53FE
:103D700023F01F03FA6A52681A433B6B5A60BB6A0E
:103D80000133BB62BFF35F8F00BF3B6B1B6843F027
:103D900000423B6B1A60FB6A9B68002B7FF476AF96
:103DA0007B68002B06D03B6B1B6843F080423B6B6B
:103DB0001A6005E03B6B1B6823F080423B6B1A6086
:103DC0003B6B1B6843F000523B6B1A607B6A3A6A9C
:103DD00053F822303B63BFF35F8F00BF3B6B1B6820
:103DE00043F000423B6B1A607B6A5A6A796AFB6B4C
:103DF00004339B000B445A607B6AFA6B1A61EFF341
:103E000010833B613B69FB6101237B617B6983F329
:103E1000108800BF7B6A9A6ABB6A13445A1C7B6A8B
:103E20009A62FB69BB61BB6983F3108800BF002302
:103E300018464437BD465DF8047B704780B586B0B0
:103E400000AFF860B960C7E900230123FB75234B7D
:103E50001B7E012B01D102233BE0204B01221A766D
:103E60004CF2503000F070F80346FB75FB7D002BE0
:103E70002BD1FB68002B05D13B781946B86800F0C0
:103E80001BF916E0FB68012B05D13B881946B86881
:103E900000F0EEF80DE0FB68022B05D13B681946F7
:103EA000B86800F0C3F804E0D7E90023B86800F070
:103EB0008BF84CF2503000F047F80346FB75084B86
:103EC0001B69074A23F001031361044B00221A7691
:103ED000FB7D18461837BD4680BD00BFB4160020D4
:103EE000003C024080B483B000AF0023FB710B4B59
:103EF0001B69002B0BDA094B094A5A60074B094A28
:103F00005A60064B1B69002B01DA0123FB71FB7918
:103F100018460C37BD465DF8047B7047003C0240F4
:103F200023016745AB89EFCD80B400AF054B1B691A
:103F3000044A43F00043136100231846BD465DF870
:103F4000047B7047003C024080B584B000AF7860CD
:103F50000023FB601A4B0022DA61FEF753FBF86086
:103F600010E07B68B3F1FF3F0CD07B68002B07D0DB
:103F7000FEF748FB0246FB68D31A7A689A4201D2E0
:103F8000032319E00F4BDB6803F48033002BE8D1E7
:103F90000C4BDB6803F00103002B02D0094B01221C
:103FA000DA60084BDB6803F0F203002B03D000F06B
:103FB000A5F8012300E0002318461037BD4680BD58
:103FC000B4160020003C024080B485B000AFF86019
:103FD000C7E90023144B1B69134A23F44073136190
:103FE000114B1B69104A43F4407313610E4B1B695C
:103FF0000D4A43F001031361FB683A681A60BFF38E
:104000006F8F00BFD7E900014FF000024FF00003AF
:104010000A000023F968043113460B6000BF14370F
:10402000BD465DF8047B7047003C024080B483B01D
:1040300000AF786039600D4B1B690C4A23F4407364
:1040400013610A4B1B69094A43F400731361074B60
:104050001B69064A43F0010313617B683A681A60E2
:1040600000BF0C37BD465DF8047B7047003C024042
:1040700080B483B000AF78600B467B800D4B1B692A
:104080000C4A23F4407313610A4B1B69094A43F439
:1040900080731361074B1B69064A43F001031361E8
:1040A0007B687A881A8000BF0C37BD465DF8047BB8
:1040B000704700BF003C024080B483B000AF78601E
:1040C0000B46FB700C4B1B690B4A23F440731361C6
:1040D000094B094A1B691361074B1B69064A43F0E8
:1040E000010313617B68FA781A7000BF0C37BD4674
:1040F0005DF8047B704700BF003C024080B400AF15
:10410000274BDB6803F01003002B08D0254BDB693D
:1041100043F01003234AD361214B1022DA60204B75
:10412000DB6803F02003002B08D01E4BDB6943F053
:1041300008031C4AD3611A4B2022DA60184BDB6853
:1041400003F04003002B08D0164BDB6943F0040357
:10415000144AD361124B4022DA60114BDB6803F042
:104160008003002B08D00F4BDB6943F002030D4A9C
:10417000D3610B4B8022DA60094BDB6803F002034A
:10418000002B08D0074BDB6943F02003054AD361BD
:10419000034B0222DA6000BFBD465DF8047B704726
:1041A000003C0240B416002080B584B000AF7860B7
:1041B00039600123FB730023BB60314B1B7E012B55
:1041C00001D1022358E02E4B01221A764CF25030D6
:1041D000FFF7BAFE0346FB73FB7B002B48D13B681D
:1041E0004FF0FF321A607B681B68012B15D17B688A
:1041F0001B69DAB27B685B681946104600F044F828
:104200004CF25030FFF7A0FE0346FB731D4B1B69B9
:104210001C4A23F00403136128E07B689B68BB60A1
:104220001CE07B681B69DBB21946B86800F050F8E7
:104230004CF25030FFF788FE0346FB73114B1B69AD
:10424000104A23F0FA031361FB7B002B03D03B6879
:10425000BA681A600AE0BB680133BB607B68DA6841
:104260007B689B681344BA689A42DAD300F078F806
:10427000034B00221A76FB7B18461037BD4680BDE3
:10428000B4160020003C024080B483B000AF034667
:104290003960FB710D4B1B690C4A23F440731361A9
:1042A0000A4B1B69094A43F004031361074B1A695F
:1042B000FB791B021343054A43F48033136100BFAB
:1042C0000C37BD465DF8047B704700BF003C0240E0
:1042D00080B485B000AF78600B46FB700023FB60B4
:1042E000FB78002B02D10023FB6010E0FB78012B50
:1042F00003D14FF48073FB6009E0FB78022B03D1FC
:104300004FF40073FB6002E04FF44073FB60134B0B
:104310001B69124A23F440731361104B1A690F4949
:10432000FB6813430B610D4B1B690C4A23F0F80328
:1043300013610A4B1A697B68DB001343074A43F099
:1043400002031361054B1B69044A43F48033136174
:1043500000BF1437BD465DF8047B7047003C024047
:1043600080B400AF204B1B6803F40073002B17D000
:104370001D4B1B681C4A23F4007313601A4B1B6807
:10438000194A43F400631360174B1B68164A23F461
:1043900000631360144B1B68134A43F400731360EB
:1043A000114B1B6803F48063002B17D00E4B1B6866
:1043B0000D4A23F4806313600B4B1B680A4A43F4D5
:1043C00080531360084B1B68074A23F48053136023
:1043D000054B1B68044A43F48063136000BFBD466D
:1043E0005DF8047B704700BF003C024080B489B098
:1043F00000AF7860396000237B6100233B610023BC
:10440000BB610023FB616BE10122FB6902FA03F34C
:104410007B613B681B687A6913403B613A697B6941
:104420009A4240F05A813B685B6803F00303012B1A
:1044300005D03B685B6803F00303022B30D17B6837
:104440009B68BB61FB695B00032202FA03F3DB4359
:10445000BA691340BB613B68DA68FB695B0002FA2A
:1044600003F3BA691343BB617B68BA699A607B68DE
:104470005B68BB610122FB6902FA03F3DB43BA69A3
:104480001340BB613B685B681B0903F00102FB69D9
:1044900002FA03F3BA691343BB617B68BA695A60D5
:1044A0003B685B6803F00303032B17D07B68DB6872
:1044B000BB61FB695B00032202FA03F3DB43BA69C9
:1044C0001340BB613B689A68FB695B0002FA03F327
:1044D000BA691343BB617B68BA69DA603B685B68A1
:1044E00003F00303022B23D1FB69DA087B6808324F
:1044F00053F82230BB61FB6903F007039B000F22D6
:1045000002FA03F3DB43BA691340BB613B681A69E3
:10451000FB6903F007039B0002FA03F3BA69134334
:10452000BB61FB69DA087B680832B96943F822107D
:104530007B681B68BB61FB695B00032202FA03F323
:10454000DB43BA691340BB613B685B6803F003025D
:10455000FB695B0002FA03F3BA691343BB617B6832
:10456000BA691A603B685B6803F44033002B00F0C3
:10457000B4800023FB60604B5B6C5F4A43F4804374
:1045800053645D4B5B6C03F48043FB60FB685B4AE8
:10459000FB699B08023352F82330BB61FB6903F0CF
:1045A00003039B000F2202FA03F3DB43BA691340B3
:1045B000BB617B68524A93422BD07B68514A93423D
:1045C00025D07B68504A93421FD07B684F4A934264
:1045D00019D07B684E4A934213D07B684D4A934270
:1045E0000DD07B684C4A934207D07B684B4A93427C
:1045F00001D107230EE008230CE006230AE005237F
:1046000008E0042306E0032304E0022302E0012380
:1046100000E00023FA6902F0030292009340BA69B5
:104620001343BB613549FB699B080233BA6941F802
:1046300023203B4B9B68BB613B69DB43BA6913405A
:10464000BB613B685B6803F48013002B03D0BA693D
:104650003B691343BB61324ABB699360304BDB68F3
:10466000BB613B69DB43BA691340BB613B685B6874
:1046700003F40013002B03D0BA693B691343BB61F9
:10468000274ABB69D360264B5B68BB613B69DB4350
:10469000BA691340BB613B685B6803F40033002BCD
:1046A00003D0BA693B691343BB611D4ABB695360C0
:1046B0001B4B1B68BB613B69DB43BA691340BB61A1
:1046C0003B685B6803F48033002B03D0BA693B6915
:1046D0001343BB61124ABB691360FB690133FB6181
:1046E000FB690F2B7FF690AE00BF00BF2437BD469D
:1046F0005DF8047B704700BF00380240003801407D
:10470000000002400004024000080240000C024089
:10471000001002400014024000180240001C024039
:10472000003C014080B483B000AF78600B467B80D2
:1047300013467B707B78002B03D07A887B689A6164
:1047400003E07B881A047B689A6100BF0C37BD4682
:104750005DF8047B704780B485B000AF78600B468D
:104760007B807B685B69FB607A88FB6813401A0476
:10477000FB68D9437B880B401A437B689A6100BF72
:104780001437BD465DF8047B7047000080B586B0E5
:1047900000AF78607B68002B01D1012367E27B6862
:1047A0001B6803F00103002B75D0884B9B6803F056
:1047B0000C03042B0CD0854B9B6803F00C03082BD7
:1047C00012D1824B5B6803F48003B3F5800F0BD1E9
:1047D0007E4B1B6803F40033002B5BD07B685B6867
:1047E000002B57D1012342E27B685B68B3F5803F21
:1047F00006D1764B1B68754A43F4803313601DE085
:104800007B685B68B3F5A02F0CD1704B1B686F4AB7
:1048100043F4802313606D4B1B686C4A43F4803370
:1048200013600BE0694B1B68684A23F48033136004
:10483000664B1B68654A23F4802313607B685B68C2
:10484000002B13D0FDF7DEFE386108E0FDF7DAFE3D
:1048500002463B69D31A642B01D9032307E25B4B61
:104860001B6803F40033002BF0D014E0FDF7CAFE00
:10487000386108E0FDF7C6FE02463B69D31A642B97
:1048800001D90323F3E1514B1B6803F40033002BE0
:10489000F0D100E000BF7B681B6803F00203002B2F
:1048A00063D04A4B9B6803F00C03002B0BD0474BA3
:1048B0009B6803F00C03082B1CD1444B5B6803F48A
:1048C0008003002B16D1414B1B6803F00203002B21
:1048D00005D07B68DB68012B01D00123C7E13B4B8E
:1048E0001B6823F0F8027B681B69DB003749134320
:1048F0000B603AE07B68DB68002B20D0344B012250
:104900001A60FDF77FFE386108E0FDF77BFE024686
:104910003B69D31A022B01D90323A8E12B4B1B6857
:1049200003F00203002BF0D0284B1B6823F0F802A1
:104930007B681B69DB00254913430B6015E0244BA2
:1049400000221A60FDF75EFE386108E0FDF75AFEAE
:1049500002463B69D31A022B01D9032387E11B4B83
:104960001B6803F00203002BF0D17B681B6803F087
:104970000803002B36D07B685B69002B16D0154BE3
:1049800001221A60FDF73EFE386108E0FDF73AFEAD
:1049900002463B69D31A022B01D9032367E10B4B73
:1049A0005B6F03F00203002BF0D01BE0094B0022E9
:1049B0001A60FDF727FE38610EE0FDF723FE024680
:1049C0003B69D31A022B07D9032350E10038024078
:1049D00000004742800E4742884B5B6F03F00203A2
:1049E000002BEAD17B681B6803F00403002B00F066
:1049F00097800023FB75814B1B6C03F08053002BC9
:104A00000FD10023BB607D4B1B6C7C4A43F080536D
:104A100013647A4B1B6C03F08053BB60BB680123AB
:104A2000FB75774B1B6803F48073002B18D1744B14
:104A30001B68734A43F480731360FDF7E3FD38612C
:104A400008E0FDF7DFFD02463B69D31A022B01D9CE
:104A500003230CE16A4B1B6803F48073002BF0D036
:104A60007B689B68012B06D1644B1B6F634A43F044
:104A7000010313671CE07B689B68052B0CD15F4B1F
:104A80001B6F5E4A43F0040313675C4B1B6F5B4A6A
:104A900043F0010313670BE0584B1B6F574A23F099
:104AA00001031367554B1B6F544A23F0040313672C
:104AB0007B689B68002B15D0FDF7A4FD38610AE0E8
:104AC000FDF7A0FD02463B69D31A41F288329342BA
:104AD00001D90323CBE0494B1B6F03F00203002BEA
:104AE000EED014E0FDF78EFD38610AE0FDF78AFD97
:104AF00002463B69D31A41F28832934201D903231B
:104B0000B5E03E4B1B6F03F00203002BEED1FB7DA3
:104B1000012B05D1394B1B6C384A23F080531364A9
:104B20007B689B69002B00F0A180344B9B6803F0ED
:104B30000C03082B5CD07B689B69022B41D1314B65
:104B400000221A60FDF75EFD386108E0FDF75AFDAE
:104B500002463B69D31A022B01D9032387E0274B76
:104B60001B6803F00073002BF0D17B68DA697B6867
:104B70001B6A1A437B685B6A9B011A437B689B6ACA
:104B80005B08013B1B041A437B68DB6A1B061B495D
:104B900013434B601B4B01221A60FDF733FD386154
:104BA00008E0FDF72FFD02463B69D31A022B01D91D
:104BB00003235CE0114B1B6803F00073002BF0D063
:104BC00054E0104B00221A60FDF71CFD386108E02C
:104BD000FDF718FD02463B69D31A022B01D90323C6
:104BE00045E0064B1B6803F00073002BF0D13DE05D
:104BF0007B689B69012B07D1012338E00038024014
:104C000000700040600047421B4B5B68FB607B68A4
:104C10009B69012B28D0FB6803F480027B68DB6969
:104C20009A4221D1FB6803F03F027B681B6A9A42DB
:104C30001AD1FA6847F6C07313407A68526A920133
:104C4000934211D1FB6803F440327B689B6A5B0896
:104C5000013B1B049A4207D1FB6803F070627B683A
:104C6000DB6A1B069A4201D0012300E000231846AC
:104C70001837BD4680BD00BF0038024080B584B003
:104C800000AF786039607B68002B01D10123CCE054
:104C9000684B1B6803F007033A689A420CD9654BCE
:104CA0003A68D2B21A70634B1B6803F007033A6884
:104CB0009A4201D00123B8E07B681B6803F002032D
:104CC000002B20D07B681B6803F00403002B05D069
:104CD000594B9B68584A43F4E05393607B681B68C8
:104CE00003F00803002B05D0534B9B68524A43F452
:104CF00060439360504B9B6823F0F0027B689B6895
:104D00004D4913438B607B681B6803F00103002B44
:104D100044D07B685B68012B07D1474B1B6803F4C9
:104D20000033002B19D101237FE07B685B68022BE5
:104D300003D07B685B68032B07D13F4B1B6803F0F4
:104D40000073002B09D101236FE03B4B1B6803F07C
:104D50000203002B01D1012367E0374B9B6823F04E
:104D600003027B685B68344913438B60FDF74AFCA0
:104D7000F8600AE0FDF746FC0246FB68D31A41F2F0
:104D80008832934201D903234FE02B4B9B6803F0F9
:104D90000C027B685B689B009A42EBD1254B1B6839
:104DA00003F007033A689A420CD2224B3A68D2B217
:104DB0001A70204B1B6803F007033A689A4201D02F
:104DC000012332E07B681B6803F00403002B08D04A
:104DD000194B9B6823F4E0527B68DB681649134348
:104DE0008B607B681B6803F00803002B09D0124B13
:104DF0009B6823F460427B681B69DB000E49134308
:104E00008B6000F021F802460B4B9B681B0903F0F6
:104E10000F030A49CB5C22FA03F3094A1360094BDA
:104E20001B681846FCF738FF002318461037BD46AC
:104E300080BD00BF003C024000380240ACD20108F7
:104E400004000020080000202DE9B04F94B000AF0E
:104E500000237B640023FB6400233B640023BB64CA
:104E6000794B9B6803F00C03082B0DD0082B00F244
:104E7000E180002B02D0042B03D0DBE0734BBB643A
:104E8000DBE0724BBB64D8E06F4B5B6803F03F0321
:104E90007B646D4B5B6803F48003002B63D06A4B2B
:104EA0005B689B090022BB63FA63BB6BC3F3080317
:104EB0003B6300237B63D7E90C4522462B464FF02A
:104EC00000004FF00001590141EAD2615001024651
:104ED0000B462146511A3961294663EB01037B6178
:104EE0004FF000024FF00003D7E904AB59468B01A5
:104EF000514643EA916351468A015146B2EB01089B
:104F0000594663EB01094FF000024FF000034FEAEE
:104F1000C90343EA58734FEAC802904699462346AC
:104F200018EB0303BB602B4649EB0303FB604FF018
:104F300000024FF00003D7E9024529468B022146C3
:104F400043EA915321468A02104619467B6C00229F
:104F5000BB62FA62D7E90A23FBF7FEFB02460B4667
:104F60001346FB6458E0384B5B689B0900221846E7
:104F70001146C0F308033B6200237B62D7E908892E
:104F800042464B464FF000004FF00001590141EA04
:104F9000D261500102460B464146B2EB010A494636
:104FA00063EB010B4FF000024FF000034FEA8B134D
:104FB00043EA9A634FEA8A12B2EB0A0463EB0B05E9
:104FC0004FF000024FF00003EB0043EA5473E2009D
:104FD00014461D464346E3183B604B4645EB03032E
:104FE0007B604FF000024FF00003D7E900452946EF
:104FF0008B02214643EA915321468A021046194604
:105000007B6C0022BB61FA61D7E90623FBF7A4FBA6
:1050100002460B461346FB640B4B5B681B0C03F00C
:10502000030301335B003B64FA6C3B6CB2FBF3F3AC
:10503000BB6402E0054BBB6400BFBB6C1846503735
:10504000BD46BDE8B08F00BF003802400024F40028
:1050500080B400AF034B1B681846BD465DF8047B67
:10506000704700BF0400002080B500AFFFF7F0FFDD
:105070000246054B9B689B0A03F007030349CB5C80
:1050800022FA03F3184680BD00380240BCD2010862
:1050900080B500AFFFF7DCFF0246054B9B685B0B5A
:1050A00003F007030349CB5C22FA03F3184680BDE3
:1050B00000380240BCD2010880B483B000AF7860F1
:1050C00039607B680F221A60124B9B6803F0030261
:1050D0007B685A600F4B9B6803F0F0027B689A6014
:1050E0000C4B9B6803F4E0527B68DA60094B9B68C9
:1050F000DB0803F4E0527B681A61074B1B6803F07E
:1051000007023B681A6000BF0C37BD465DF8047BA0
:10511000704700BF00380240003C024080B582B0BA
:1051200000AF78607B68002B01D1012341E07B68F0
:1051300093F83D30DBB2002B06D17B68002283F868
:105140003C20786800F039F87B68022283F83D2023
:105150007B681A687B6804331946104600F0C0F972
:105160007B68012283F846207B68012283F83E2079
:105170007B68012283F83F207B68012283F840206E
:105180007B68012283F841207B68012283F842205A
:105190007B68012283F843207B68012283F8442046
:1051A0007B68012283F845207B68012283F83D203B
:1051B000002318460837BD4680BD80B483B000AFD9
:1051C000786000BF0C37BD465DF8047B7047000077
:1051D00080B485B000AF78607B6893F83D30DBB277
:1051E000012B01D001234EE07B68022283F83D2091
:1051F0007B681B68DA687B681B6842F00102DA6032
:105200007B681B68234A934222D07B681B68B3F1FA
:10521000804F1DD07B681B681F4A934218D07B6863
:105220001B681E4A934213D07B681B681C4A93423A
:105230000ED07B681B681B4A934209D07B681B68B1
:10524000194A934204D07B681B68184A934211D1D3
:105250007B681B689B6803F00703FB60FB68062BF9
:1052600010D07B681B681A687B681B6842F00102DB
:105270001A6007E07B681B681A687B681B6842F04D
:1052800001021A60002318461437BD465DF8047BFE
:10529000704700BF000001400004004000080040CB
:1052A000000C004000040140004001400018004094
:1052B00080B584B000AF78607B681B68DB68FB60FA
:1052C0007B681B681B69BB60BB6803F00203002B93
:1052D00020D0FB6803F00203002B1BD07B681B6807
:1052E0006FF002021A617B6801221A777B681B68E3
:1052F0009B6903F00303002B03D0786800F0D2F819
:1053000005E0786800F0C4F8786800F0D5F87B68AC
:1053100000221A77BB6803F00403002B20D0FB683F
:1053200003F00403002B1BD07B681B686FF00402A2
:105330001A617B6802221A777B681B689B6903F4F9
:105340004073002B03D0786800F0ACF805E0786873
:1053500000F09EF8786800F0AFF87B6800221A77BA
:10536000BB6803F00803002B20D0FB6803F00803A0
:10537000002B1BD07B681B686FF008021A617B68EA
:1053800004221A777B681B68DB6903F00303002B98
:1053900003D0786800F086F805E0786800F078F8C7
:1053A000786800F089F87B6800221A77BB6803F000
:1053B0001003002B20D0FB6803F01003002B1BD040
:1053C0007B681B686FF010021A617B6808221A77ED
:1053D0007B681B68DB6903F44073002B03D078689B
:1053E00000F060F805E0786800F052F8786800F0A6
:1053F00063F87B6800221A77BB6803F00103002B77
:105400000CD0FB6803F00103002B07D07B681B68FE
:105410006FF001021A617868FCF7F4F9BB6803F0D9
:105420008003002B0CD0FB6803F08003002B07D017
:105430007B681B686FF080021A61786800F006F9DB
:10544000BB6803F04003002B0CD0FB6803F0400363
:10545000002B07D07B681B686FF040021A617868E8
:1054600000F034F8BB6803F02003002B0CD0FB687D
:1054700003F02003002B07D07B681B686FF020022D
:105480001A61786800F0D8F800BF1037BD4680BDBB
:1054900080B483B000AF786000BF0C37BD465DF8C4
:1054A000047B704780B483B000AF786000BF0C37D6
:1054B000BD465DF8047B704780B483B000AF786070
:1054C00000BF0C37BD465DF8047B704780B483B0E5
:1054D00000AF786000BF0C37BD465DF8047B7047B5
:1054E00080B485B000AF786039607B681B68FB6072
:1054F0007B68464A934213D07B68B3F1804F0FD04C
:105500007B68434A93420BD07B68424A934207D060
:105510007B68414A934203D07B68404A934208D15A
:10552000FB6823F07003FB603B685B68FA68134319
:10553000FB607B68354A93422BD07B68B3F1804F88
:1055400027D07B68324A934223D07B68314A93420A
:105550001FD07B68304A93421BD07B682F4A93420E
:1055600017D07B682E4A934213D07B682D4A934212
:105570000FD07B682C4A93420BD07B682B4A934216
:1055800007D07B682A4A934203D07B68294A93421A
:1055900008D1FB6823F44073FB603B68DB68FA6862
:1055A0001343FB60FB6823F080023B685B69134395
:1055B000FB607B68FA681A603B689A687B68DA620D
:1055C0003B681A687B689A627B68104A934203D0F2
:1055D0007B68124A934203D13B681A697B681A635D
:1055E0007B6801225A617B681B6903F00103012B70
:1055F00005D17B681B6923F001027B681A6100BF3B
:105600001437BD465DF8047B704700BF00000140C1
:105610000004004000080040000C0040000401406D
:105620000040014000440140004801400018004093
:10563000001C00400020004080B483B000AF7860C0
:1056400000BF0C37BD465DF8047B704780B483B063
:1056500000AF786000BF0C37BD465DF8047B704733
:1056600080B582B000AF78607B68002B01D1012348
:1056700042E07B6893F84130DBB2002B06D17B68B7
:10568000002283F840207868FCF7C8FD7B6824225C
:1056900083F841207B681B68DA687B681B6822F40A
:1056A0000052DA60786800F0BDFD7B681B681A69FB
:1056B0007B681B6822F490421A617B681B685A69F8
:1056C0007B681B6822F02A025A617B681B68DA68D3
:1056D0007B681B6842F40052DA607B6800225A64DF
:1056E0007B68202283F841207B68202283F84220B7
:1056F0007B6800225A63002318460837BD4680BDE8
:1057000080B58AB002AFF860B9603B601346FB8099
:1057100000237B61FB6893F84130DBB2202B75D10D
:10572000BB68002B02D0FB88002B01D101236EE067
:10573000FB6800225A64FB68212283F84120FCF7B1
:1057400061FF7861FB68FA889A84FB68FA88DA84DA
:10575000FB689B68B3F5805F08D1FB681B69002B71
:1057600004D10023FB61BB68BB6103E0BB68FB6144
:105770000023BB612EE03B6800937B6900228021FF
:10578000F86800F01FFB0346002B05D0FB682022C1
:1057900083F8412003233AE0FB69002B0BD1BB695E
:1057A0001B881A46FB681B68C2F308025A60BB6973
:1057B0000233BB6107E0FB691A78FB681B685A601B
:1057C000FB690133FB61FB68DB8C9BB2013B9AB246
:1057D000FB68DA84FB68DB8C9BB2002BCBD13B6887
:1057E00000937B6900224021F86800F0EBFA034641
:1057F000002B05D0FB68202283F84120032306E01C
:10580000FB68202283F84120002300E00223184691
:105810002037BD4680BD80B584B000AFF860B96068
:105820001346FB80FB6893F84230DBB2202B12D189
:10583000BB68002B02D0FB88002B01D101230BE0B9
:10584000FB6800221A63FB881A46B968F86800F002
:1058500012FB034600E0022318461037BD4680BD08
:1058600080B5BAB000AF78607B681B681B68C7F86A
:10587000E4307B681B68DB68C7F8E0307B681B6836
:105880005B69C7F8DC300023C7F8D8300023C7F8BD
:10589000D430D7F8E43003F00F03C7F8D830D7F886
:1058A000D830002B0FD1D7F8E43003F02003002BC1
:1058B00009D0D7F8E03003F02003002B03D078683C
:1058C00000F0F2FB5BE2D7F8D830002B00F0DE806E
:1058D000D7F8DC3003F00103002B06D1D7F8E03015
:1058E00003F49073002B00F0D180D7F8E43003F07C
:1058F0000103002B0BD0D7F8E03003F48073002BAA
:1059000005D07B685B6C43F001027B685A64D7F872
:10591000E43003F00403002B0BD0D7F8DC3003F0A5
:105920000103002B05D07B685B6C43F002027B68AF
:105930005A64D7F8E43003F00203002B0BD0D7F8F9
:10594000DC3003F00103002B05D07B685B6C43F077
:1059500004027B685A64D7F8E43003F00803002B94
:1059600011D0D7F8E03003F02003002B05D1D7F891
:10597000DC3003F00103002B05D07B685B6C43F047
:1059800008027B685A647B685B6C002B00F0F28134
:10599000D7F8E43003F02003002B08D0D7F8E0302C
:1059A00003F02003002B02D0786800F07DFB7B68B9
:1059B0001B685B6903F04003402B0CBF01230023ED
:1059C000DBB2C7F8D4307B685B6C03F00803002BB4
:1059D00003D1D7F8D430002B4FD0786800F085FA87
:1059E0007B681B685B6903F04003402B41D17B68F7
:1059F0001B681433C7F89C30D7F89C3053E8003F3D
:105A0000C7F89830D7F8983023F04003C7F8D03063
:105A10007B681B681433D7F8D020C7F8A820C7F8D4
:105A2000A430D7F8A410D7F8A82041E80023C7F87D
:105A3000A030D7F8A030002BD9D17B68DB6B002BCE
:105A400013D07B68DB6B7E4A1A657B68DB6B18467C
:105A5000FCF75AFF0346002B16D07B68DB6B1B6DEF
:105A60007A68D26B104698470EE0786800F094F997
:105A70000AE0786800F090F906E0786800F08CF9A8
:105A80007B6800225A6475E100BF73E17B681B6B81
:105A9000012B40F04F81D7F8E43003F01003002BC6
:105AA00000F04881D7F8E03003F01003002B00F03D
:105AB00041810023BB607B681B681B68BB607B68FF
:105AC0001B685B68BB60BB687B681B685B6903F035
:105AD0004003402B40F0B6807B68DB6B1B685B6843
