:020000040800F2
:1000000000000220B9210008191D0008211D000868
:10001000291D0008311D0008391D000800000000DE
:10002000000000000000000000000000A19B00088C
:10003000411D000800000000F19D0008599E0008C5
:1000400009220008092200080922000809220008E4
:1000500009220008092200080922000809220008D4
:1000600009220008092200080922000809220008C4
:1000700009220008092200080922000809220008B4
:1000800009220008092200080922000809220008A4
:100090000922000809220008092200080922000894
:1000A0000922000809220008092200080922000884
:1000B0000922000809220008092200080922000874
:1000C0000922000809220008092200080922000864
:1000D00009220008511D0008092200080922000811
:1000E0000922000809220008092200080922000844
:1000F0000922000809220008092200080922000834
:100100000922000809220008092200080922000823
:100110000922000809220008651D000809220008BC
:100120000922000809220008092200080922000803
:1001300009220008791D0008092200080922000888
:1001400009220008092200080922000809220008E3
:1001500009220008092200080922000809220008D3
:1001600009220008092200080922000809220008C3
:1001700009220008092200080922000800000000E6
:08018000092200080922000811
:1001900010B5054C237833B9044B13B10448AFF3C1
:1001A00000800123237010BD90000020000000009B
:1001B0006C98010808B5034B1BB103490348AFF322
:1001C000008008BD00000000940000206C98010829
:1001D000034613F8012B002AFBD1181A0138704787
:1001E00001F0FF01102A2BDB10F0070F08D010F8E8
:1001F000013B013A8B422DD010F0070F42B3F6D1EC
:10020000F0B441EA012141EA014122F007047FF004
:1002100000070023F0E80256083C85EA010586EA5B
:10022000010685FA47F5A3FA87F586FA47F6A5FA97
:1002300087F68EB9EED1F0BC01F0FF0102F00702A3
:1002400032B110F8013B013A83EA010313B1F8D14E
:100250000020704701387047002D06BF354603382F
:10026000073815F0010F07D1013015F4807F02BF68
:10027000013015F4C03F0130F0BC0138704700BFB9
:1002800081F0004102E000BF83F0004330B54FEA47
:1002900041044FEA430594EA050F08BF90EA020FB4
:1002A0001FBF54EA000C55EA020C7FEA645C7FEA47
:1002B000655C00F0E2804FEA5454D4EB5555B8BF6A
:1002C0006D420CDD2C4480EA020281EA030382EADB
:1002D000000083EA010180EA020281EA0303362D6D
:1002E00088BF30BD11F0004F4FEA01314FF4801C40
:1002F0004CEA113102D0404261EB410113F0004F52
:100300004FEA03334CEA133302D0524263EB430308
:1003100094EA050F00F0A780A4F10104D5F1200EA6
:100320000DDB02FA0EFC22FA05F2801841F1000101
:1003300003FA0EF2801843FA05F359410EE0A5F1D5
:1003400020050EF1200E012A03FA0EFC28BF4CF006
:10035000020C43FA05F3C01851EBE37101F00045BC
:1003600007D54FF0000EDCF1000C7EEB00006EEBC9
:100370000101B1F5801F1BD3B1F5001F0CD3490853
:100380005FEA30004FEA3C0C04F101044FEA4452AA
:1003900012F5800F80F09A80BCF1004F08BF5FEA31
:1003A000500C50F1000041EB045141EA050130BD11
:1003B0005FEA4C0C404141EB0101013C28BFB1F523
:1003C000801FE9D291F0000F04BF01460020B1FA6E
:1003D00081F308BF2033A3F10B03B3F120020CDA41
:1003E0000C3208DD02F1140CC2F10C0201FA0CF01F
:1003F00021FA02F10CE002F11402D8BFC2F1200C84
:1004000001FA02F120FA0CFCDCBF41EA0C01904039
:10041000E41AA2BF01EB0451294330BD6FEA040482
:100420001F3C1CDA0C340EDC04F11404C4F120026D
:1004300020FA04F001FA02F340EA030021FA04F37F
:1004400045EA030130BDC4F10C04C4F1200220FAD6
:1004500002F001FA04F340EA0300294630BD21FA14
:1004600004F0294630BD94F0000F83F4801306BFDA
:1004700081F480110134013D4EE77FEA645C18BFCE
:100480007FEA655C29D094EA050F08BF90EA020F65
:1004900005D054EA000C04BF1946104630BD91EA5D
:1004A000030F1EBF0021002030BD5FEA545C05D160
:1004B0004000494128BF41F0004130BD14F580049F
:1004C0003CBF01F5801130BD01F0004545F0FE4113
:1004D00041F470014FF0000030BD7FEA645C1ABF48
:1004E000194610467FEA655C1CBF0B46024650EA7F
:1004F000013406BF52EA033591EA030F41F40021AB
:1005000030BD00BF90F0000F04BF0021704730B530
:100510004FF4806404F132044FF000054FF0000105
:1005200050E700BF90F0000F04BF0021704730B5C6
:100530004FF4806404F1320410F0004548BF40429B
:100540004FF000013EE700BF42004FEAE2014FEAF0
:1005500031014FEA02701FBF12F07F4393F07F4FCB
:1005600081F06051704732F07F4208BF704793F0CE
:100570007F4F04BF41F40021704730B54FF46074E1
:1005800001F0004521F000411CE700BF50EA0102E4
:1005900008BF704730B54FF000050AE050EA01028D
:1005A00008BF704730B511F0004502D5404261EBFD
:1005B00041014FF4806404F132045FEA915C3FF43E
:1005C000D8AE4FF003025FEADC0C18BF03325FEADB
:1005D000DC0C18BF033202EBDC02C2F1200300FA8C
:1005E00003FC20FA02F001FA03FE40EA0E0021FAB1
:1005F00002F11444BDE600BF4FF0FF3C06E000BF2F
:100600004FF0010C02E000BF4FF0010C4DF804CD9B
:100610004FEA410C7FEA6C5C4FEA430C18BF7FEA5B
:100620006C5C1BD001B050EA410C0CBF52EA430C89
:1006300091EA030F02BF90EA020F0020704710F109
:10064000000F91EA030F58BF994208BF90422CBF98
:10065000D8176FEAE37040F0010070474FEA410C91
:100660007FEA6C5C02D150EA013C07D14FEA430CAF
:100670007FEA6C5CD6D152EA033CD3D05DF8040B20
:10068000704700BF8446104662468C461946634652
:1006900000E000BF01B5FFF7B7FF002848BF10F129
:1006A000000F01BD4DF808EDFFF7F4FF0CBF01206E
:1006B00000205DF808FB00BF4DF808EDFFF7EAFFEA
:1006C00034BF012000205DF808FB00BF4DF808EDA5
:1006D000FFF7E0FF94BF012000205DF808FB00BF9A
:1006E0004DF808EDFFF7CEFF94BF012000205DF824
:1006F00008FB00BF4DF808EDFFF7C4FF34BF012031
:1007000000205DF808FB00BF4FEA410212F500121D
:1007100015D211D56FF47873B3EB625212D94FEA48
:10072000C12343F0004343EA505311F0004F23FA32
:1007300002F018BF404270474FF00000704750EA87
:10074000013005D111F0004008BF6FF00040704744
:100750004FF00000704700BF53B94AB9002908BFE5
:1007600000281CBF4FF0FF314FF0FF3000F06AB996
:10077000ADF1080C6DE904CE00F006F8DDF804E0F8
:10078000DDE9022304B070472DE9F047089D0C46CF
:10079000002B4ED194468C458646B2FA82F262D93D
:1007A0004AB1C2F12003914020FA03F30CFA02FC93
:1007B000194300FA02FE4FEA1C471FFA8CF6B1FB00
:1007C000F7F44FEA1E4307FB141143EA014304FB0D
:1007D00006F199420AD91CEB030304F1FF3080F0C3
:1007E0001281994240F20F81023C6344591A1FFA68
:1007F0008EF3B1FBF7F007FB101143EA014300FB56
:1008000006F69E420AD91CEB030300F1FF3180F08B
:10081000FC809E4240F2F980634402389B1B40EA10
:10082000044000211DB1D3400022C5E90032BDE8DB
:10083000F0878B4205D90DB1C5E9000100210846BA
:10084000F5E7B3FA83F1002946D1A34202D39042DF
:10085000C0F0F080861A64EB03030120002DE6D07F
:10086000C5E90063E3E7002A40F09080A1EB0C04A7
:100870004FEA1C481FFA8CF70121B4FBF8F64FEA47
:100880001E4308FB164443EA044307FB06F0984264
:1008900008D91CEB030306F1FF3402D2984200F2A0
:1008A000CD8026461C1A1FFA8EF3B4FBF8F008FB25
:1008B000104443EA044300FB07F79F4208D91CEBAE
:1008C000030300F1FF3402D29F4200F2B0802046C1
:1008D000DB1B40EA0640A5E7C1F120068B4022FA67
:1008E00006F71F4320FA06FC04FA01F343EA0C035F
:1008F000F44000FA01F8380C4FEA1349B4FBF0FE5B
:100900001FFA87FC00FB1E4449EA04440EFB0CF965
:10091000A14502FA01F20AD93C190EF1FF3A80F022
:100920008480A14540F28180AEF1020E3C44A4EBEC
:1009300009041FFA83F9B4FBF0F300FB134449EAFE
:10094000044403FB0CFCA44507D93C1903F1FF3018
:1009500067D2A44565D9023B3C4443EA0E40A0FB64
:100960000293A4EB0C049C42CE469C4651D34ED03D
:1009700055B1B8EB0E0364EB0C0404FA06F6CB4059
:100980001E43CC40C5E90064002150E7C2F12003BA
:1009900020FA03F10CFA02FC24FA03F394400C430E
:1009A0004FEA1C4800FA02FE1FFA8CF7B3FBF8F07E
:1009B00008FB1031230C43EA014300FB07F1994285
:1009C00008D91CEB030300F1FF362CD299422AD937
:1009D000023863445B1AA4B2B3FBF8F108FB11338D
:1009E00044EA034401FB07F3A34208D91CEB0404C7
:1009F00001F1FF3613D2A34211D902396444E41A3B
:100A000041EA004139E70446F0E6084606E7C845F2
:100A1000AED2B9EB020E63EB070C0138A8E7314602
:100A2000EDE7034699E73046D4E7D6467FE76344CF
:100A300002384DE70646234608460FE7023E634468
:100A400030E700BF704700BF80B500AF0122012131
:100A500048F2050000F04EF800BF80BD80B483B0BE
:100A600000AF0346FB80FB885B101AB245F255537A
:100A700013401AB2FB885B001BB223F4AA4323F095
:100A800055031BB213431BB2FB80FB889B101AB2A9
:100A900043F2333313401AB2FB889B001BB223F49A
:100AA0004C5323F033031BB213431BB2FB80FB8870
:100AB0001B111AB240F60F7313401AB2FB881B01C8
:100AC0001BB223F4706323F00F031BB213431BB25A
:100AD000FB80FB881B0A9BB21AB2FB881B021BB26D
:100AE00013431BB2FB80FB8818460C37BD465DF8EC
:100AF000047B704780B588B000AF0346B9607A6068
:100B0000FB810023FB6139E0BB68002B08D0FB6947
:100B10009BB21846FFF7A2FF03461B0A9BB201E0F7
:100B2000FB699BB27B8310237B6112E0B7F91A301B
:100B3000002B08DA7B8B5B001AB2B7F90E305340FA
:100B40001BB27B8302E07B8B5B007B837B69013B79
:100B50007B617B69002BE9DC7B68002B06D07B8BFB
:100B60001846FFF77BFF0346194600E0798B074ADA
:100B7000FB6922F81310FB690133FB61FB69FF2B52
:100B8000C2DD00BF00BF2037BD4680BDAC000020E5
:100B900080B485B000AF786039604FF6FF73FB8199
:100BA00011E07B685A1C7A601A78FB89DBB25340EB
:100BB0007B73FB891B0AFB817B7B094A32F813207C
:100BC000FB895340FB813B685A1E3A60002BE8D1F9
:100BD000FB8918461437BD465DF8047B704700BF9B
:100BE000AC00002080B500AF00F002F800BF80BD6F
:100BF00080B584B000AF094B1B68FB60FB68BB602D
:100C0000074B1B687B607B6883F3088800BFBB6869
:100C1000984700BF1037BD4680BD00BF04000608DE
:100C20000000060880B58AB000AF78607B6807EEE8
:100C3000903AF8EEE77A9FED1D7AC7EE876A16EED6
:100C4000900AFFF781FC02460B4643EC102B18F08C
:100C500083FD53EC102B10461946FFF755FD034654
:100C60007B620023FB6003F00FF900233B61072345
:100C7000BB617B6AFB6101237B6102233B6207F15D
:100C80000C0207F110031146184603F05FFA034601
:100C9000002B03D003F01AF9012302E003F016F948
:100CA000002318462837BD4680BD00BF000000481D
:100CB000B0B586B000AFF860B9607A6003F0E4F8D0
:100CC00000237B611EE07A687B69134403F10061B5
:100CD00001F5C0217B69FA6813441B78DBB200225E
:100CE0001C46154622462B46002003F079F80346A1
:100CF000002B04D003F0EAF84FF0FF3309E07B69E2
:100D000001337B617A69BB689A42DCDB03F0DEF871
:100D1000002318461837BD46B0BD000080B584B02A
:100D200000AF78600B467B807B6893F8A432012B80
:100D30004FD17B88002B4CD02A4B00221A801CE01C
:100D400001222949294804F048FD294B1B68254AFE
:100D500012881146274A11440022184607F076FAF5
:100D60000346012B03D0012006F07EFB05E01D4B5E
:100D70001B8801339AB21B4B1A807B880133194AB6
:100D800012889342DCDA7B881A4AD35C1B029BB23E
:100D90007A88013217498A5C1344FB817B881946A3
:100DA0001448FFF7F5FE03461A46FB8993420DD11E
:100DB00079887B68D3F898321A460E48FFF778FF97
:100DC0000346002B08D04FF0FF3307E06FF001031C
:100DD00004E06FF0020301E000BF00231846103763
:100DE000BD4680BDA4040020B8040020D415002016
:100DF000B0040020AC02002080B400AFBFF34F8FDE
:100E000000BF064BDB6803F4E0620449044B134364
:100E1000CB60BFF34F8F00BF00BFFDE700ED00E0E8
:100E20000400FA0580B586B002AFF860B9607A6058
:100E30003B60BB6900933B687A68B968F86800F06A
:100E400005F800BF1037BD4680BD000080B588B0F2
:100E500000AFF860B9607A603B60BB6A3A681344DF
:100E6000A549184601F06CF80346002B16D0BB6A62
:100E70003A6813441A46A149786816F0AFFF7868BB
:100E800001F0AAF89E4A9F49B86816F0A7FFFB68D0
:100E90001B68B968184601F0E1F83CE0BB6A3A68A3
:100EA00013449949184601F04BF80346002B0DD026
:100EB000964B1B681A469649B86816F08FFFFB6878
:100EC0001B68B968184601F0C9F824E0BB6A3A68A3
:100ED00013449049184601F033F80346002B1AD00A
:100EE00000F0F8FF0346002B08D1012000F0FEFFC0
:100EF00089494FF4977001F0B1F80CE000F0EAFF77
:100F00000346012B07D1002000F0F0FF83494FF486
:100F1000977001F0A3F8BB6A3A68134480491846F9
:100F200001F00EF80346002B5AD00023FB61BB6A88
:100F30003A68D018FB6803F528731A46794916F009
:100F40006DFFBB6A3A6813441A466C49786816F01C
:100F500045FF786801F040F8FB68D3F8A032B3F59C
:100F6000C02F04D2FB68D3F8A032002B02D16FF05F
:100F70000103FB61FB69002B06D1FB68D3F8A032AB
:100F80001846FFF74FFEF861FB69002B04D1FB68A0
:100F9000012283F8A42203E0FB68022283F8A42242
:100FA000FB680022C3F89822FB680022C3F89C2249
:100FB000FB69002B08D1FB68D3F8A0321A465A49C6
:100FC000B86816F00BFF04E0FA695749B86816F0E4
:100FD00005FFFB681B68B968184601F03FF8F2E0AE
:100FE000BB6A3A6813445149184600F0A9FF03460A
:100FF000002B5CD00023BB6100237B6100233B619D
:10100000BB6A3A6813441A463C49786816F0E6FE13
:10101000786800F0E1FFBB6A3A68D01807F1140362
:1010200007F11002424916F0F9FEFB68D3F89C3232
:101030007A6993422FD1FB6893F8A432012B2AD10D
:101040003B699BB21946F868FFF768FEB861BB6957
:10105000002B20D1FB68D3F89C325A1CFB68C3F8E4
:101060009C22FB68D3F898323A691A44FB68C3F8AB
:101070009822FB68D3F89822FB68D3F8A0329A42F2
:1010800007D9FB68022283F8A4226FF00303BB6137
:1010900001E00023BB61BA692649B86816F09EFEDC
:1010A000FB681B68B968184600F0D8FF8BE0BB6A84
:1010B0003A6813442049184600F042FF0346002BCB
:1010C0003ED0BB6A3A6813441A460C49786816F059
:1010D00085FE786800F080FFFB68D3F89C321A46E2
:1010E0001649B86816F07AFEFB681B68B96818469E
:1010F00000F0B4FF67E000BF0C99010814990108E3
:101100002C99010838990108449901080000002031
:101110004C990108589901086099010874990108CF
:1011200088990108909901089C990108A8990108DB
:10113000B0990108C0990108CC990108D499010817
:10114000BB6A3A6813442249184600F0F9FE034688
:10115000002B18D0BB6A3A6813441A461D497868B8
:1011600016F03CFE786800F037FF1B4B01221A6036
:101170001A49B86816F032FEFB681B68B968184651
:1011800000F06CFF1FE0BB6A3A681344144918462C
:1011900000F0D6FE0346002B15D0BB6A3A68134414
:1011A0001049184616F03AFE0F49B86816F016FEB8
:1011B000FB681B68B968184600F050FF0B4B002213
:1011C0001A60FFF719FE00BF2037BD4680BD00BF83
:1011D000E49901081499010864070020F0990108B6
:1011E000FC990108149A0108309A010800F00120C6
:1011F00080B400AFBFF34F8F00BF064BDB6803F432
:10120000E0620449044B1343CB60BFF34F8F00BF30
:1012100000BFFDE700ED00E00400FA0580B485B0F2
:1012200000AFF860B9607A60FB68074A1A60BB6873
:10123000064A1A607B6880221A6000BF1437BD46D8
:101240005DF8047B704700BF70070020C4070020D2
:10125000B0B58EB000AF00220121052006F01FFDC1
:101260000346264A136000220121142006F017FDD0
:101270000346234A1360002201214FF47A7006F0DE
:101280000EFD03461F4A136000220121082006F0CC
:1012900006FD03461C4A1360002201214FF47A70B8
:1012A00006F0FDFC0346174A1360184B07F11C04B7
:1012B0001D460FCD0FC495E8070084E8070007F12D
:1012C0001C030021184606F083F80346104A1360F9
:1012D000104B3C461D460FCD0FC495E8070084E82F
:1012E00007003B460021184606F072F803460A4AFA
:1012F000136000BF3837BD46B0BD00BFA804002052
:10130000AC040020B0040020B4040020589A010866
:1013100068070020809A01086C07002080B5ADF5B1
:10132000BF6D02AF07F5BE63A3F2EC53186005F082
:10133000EDF9484BC7F8EC35D7F8EC35002283F8C7
:10134000A422FFF781FB06F033F80346C7F8E8351F
:10135000414B1B68C7F8E4353F4B1B68012B12D08B
:1013600006F026F80246D7F8E835D31A41F2707233
:10137000934208D9394B1B68002B04D1364B00220D
:101380001A60FFF735FF01223549364804F025FA87
:10139000354B1868354B1B68354A134400221946F3
:1013A00006F054FF0346012B4AD1304B1B68304AEC
:1013B000D35C0D2B05D02D4B1B682D4AD35C0A2B1B
:1013C00018D12A4B1B680133294A0021D154274BDD
:1013D0001B68012B0ADD07F5FE7207F108010023E7
:1013E0000093234BD7F8EC05FFF71CFD1F4B0022A1
:1013F0001A6028E01D4B1B6840F2E53293421BDC6B
:101400001A4B1B681A4AD35C082B09D1174B1B686F
:10141000002B05DD154B1B68013B144A136012E0DD
:10142000124B1B68124AD35C082B0CD00F4B1B6865
:1014300001330E4A136006E00C4B00221A6002E0F2
:10144000012006F011F800F06FFD0246D7F8EC35E8
:101450001A607DE7BC04002000F001206407002032
:10146000B8040020D4150020B0040020C4090020D6
:10147000C809002080B582B000AF78604FF47A7060
:1014800005F0F2FF0249034800F098F9FAE700BFBF
:10149000AC040020B004002080B584B000AF7860B8
:1014A0000023FB607B680C4A934210D10B4B1868F9
:1014B00007F10C0200230A4906F09AFD01220849AF
:1014C000054804F08AF940F22D1000F01DFD00BF20
:1014D0001037BD4680BD00BFD4150020B0040020E9
:1014E000B804002080B58CB000AF07F11C030022C7
:1014F0001A605A609A60DA601A610023BB61594B26
:101500001B6B584A43F010031363564B1B6B03F0DD
:101510001003BB61BB6900237B61524B1B6B514ABB
:1015200043F0800313634F4B1B6B03F080037B611D
:101530007B6900233B614B4B1B6B4A4A43F004031E
:101540001363484B1B6B03F004033B613B690023AF
:10155000FB60444B1B6B434A43F001031363414B55
:101560001B6B03F00103FB60FB680023BB603D4B7A
:101570001B6B3C4A43F0020313633A4B1B6B03F0B3
:101580000203BB60BB6800237B60364B1B6B354A94
:1015900043F040031363334B1B6B03F040037B604A
:1015A0007B6800233B602F4B1B6B2E4A43F00803E4
:1015B00013632C4B1B6B03F008033B603B6800225A
:1015C0001C21294803F080F800224FF4E04127480D
:1015D00003F07AF800224FF4E051254803F074F844
:1015E0001C23FB6101233B6200237B620023BB625F
:1015F00007F11C0319461C4802F0CAFE4FF4E043F1
:10160000FB6101233B6200237B620023BB6207F185
:101610001C031946154802F0BBFE4FF4E053FB6172
:1016200001233B6200237B620023BB6207F11C03A2
:1016300019460F4802F0ACFE01221C210A4803F0B3
:1016400043F801224FF4E041084803F03DF801223D
:101650004FF4E051064803F037F800BF3037BD467D
:1016600080BD00BF0038024000100240000402406C
:10167000000C024080B582B000AF0E4B1B687B604F
:101680007B68002B04D10B4B00221A60FFF7AAFAEB
:1016900000F01CFF00F010F84FF4FA6000F058FF63
:1016A000FFF720FF00F00EFDFFF7D2FD05F079FEF9
:1016B00000BFFDE700F0012080B594B000AF07F156
:1016C000200330220021184616F0D6FC07F10C0347
:1016D00000221A605A609A60DA601A610023BB60C7
:1016E000284B1B6C274A43F080531364254B1B6C1B
:1016F00003F08053BB60BB6800237B60224B1B68F8
:10170000214A43F4804313601F4B1B6803F480435A
:101710007B607B6802233B620123FB6210233B63F7
:101720000223BB630023FB6308233B64A8237B6481
:101730000223BB640423FB6407F12003184602F074
:10174000F7FF0346002B01D000F032F80F23FB60B7
:1017500002233B6100237B614FF4A053BB614FF434
:101760008053FB6107F10C030521184603F058FA7A
:101770000346002B01D000F01BF800BF5037BD46D8
:1017800080BD00BF003802400070004080B582B0CC
:1017900000AF78607B681B68044A934201D100F077
:1017A000B7FE00BF0837BD4680BD00BF0010004037
:1017B00080B400AF72B600BF00BFFDE790B5BDB00A
:1017C00002AF78603960F52387F8E730F52387F8B2
:1017D000E630F52387F8E530F52387F8E430002379
:1017E00087F8E3300023C7F8DC30B44B1B6807F1FF
:1017F0000B010022184606F029FD0346012B0FD1EC
:10180000FB7A1A4607F11003AD49184616F0E6FABE
:1018100007F11003184600F0DFFBFB7A87F8E3308E
:1018200097F8E330012B40F05F81A64B1B68002B3B
:1018300007D100220021102008F0ACFD0346A14A88
:10184000136097F9E730002B38D09E4B1B6841F6A8
:10185000C6620021184608F057FE034687F8E730B5
:10186000994B1B68DBB21946974B1B681B0ADBB20E
:101870001C46954B1B681B0CDBB21A46924B1B682F
:101880001B0EDBB207F110000193009223460A46BB
:101890008E4916F0A3FA07F11003184600F09CFBDE
:1018A00007F1100341F6C6628949184616F096FA08
:1018B00007F11003184600F08FFB30E197F9E5308F
:1018C000002B16D07F4B1B68FF21184608F054FEF2
:1018D000034687F8E53007F1100341F6C6627D49FB
:1018E000184616F07BFA07F11003184600F074FB57
:1018F00015E197F9E630002B50D0724B1B6893F836
:101900002020704B1B6842F00202D2B283F82020E4
:101910006C4B1B68C822DA616A4B1B686E4918461B
:1019200008F056FE034687F8E63097F9E630002BBC
:1019300040F0F580002000F0D9FA674B1B68C82200
:10194000DA61654B1B685B685B68DBB21946624B0A
:101950001B685B685B681B0ADBB21C465E4B1B683E
:101960005B685B681B0CDBB21A465B4B1B685B68F1
:101970005B681B0EDBB207F1100001930092234657
:101980000A46564916F02AFA07F11003184600F0E5
:1019900023FB05F00DFDC7F8DC00C0E04FF49770A5
:1019A00000F0B2FA4C4B1B6807F10C0211461846C6
:1019B00009F032F8034687F8E430FB68002B3CD08E
:1019C00097F9E430002B56D1FB681B685B89002B2C
:1019D00051D00023C7F8D83010E07B681868FB6846
:1019E0001B685A68D7F8D830D1180023002206F0B7
:1019F000FDF9D7F8D8300133C7F8D830FB681B6839
:101A00005B891A46D7F8D8309342E6DBC923FB72CC
:101A10003B68186807F10B010023002206F0E6F985
:101A2000FB6818460AF0A6FDFB6818460AF082FD1E
:101A300005F0BEFCC7F8DC001DE000F04BFA0346E1
:101A4000012B0CD105F0B4FC0246D7F8DC30D31AD8
:101A5000234A93420FD9F12387F8E4300BE005F0D5
:101A6000A7FC0246D7F8DC30D31AB3F5FA4F02D9F7
:101A7000F12387F8E43097F9E43013F10B0F04D029
:101A800097F9E43013F10F0F49D1164800F0A4FA8A
:101A900097F8E43087F8E6300F4B1B68002B3ED0F8
:101AA0000D4B1B68184609F033F90B4B1B681846A1
:101AB00008F00EFD084B00221A6030E0A804002058
:101AC0009C9A01089811002070160020C49A010801
:101AD000EC9A0108FC9A01089C110020289B01083F
:101AE00080EE3600549B01080F4B1B68002B10D072
:101AF000FB6818460AF01EFD0B4B1B68184609F0E0
:101B000007F9094B1B68184608F0E2FC064B002257
:101B10001A60F52387F8E630F52387F8E4300120D2
:101B200005F0A2FC61E600BF9C11002080B584B0E6
:101B300000AF78600023BB607B6893F82D309B0872
:101B400003F00103DBB2002B0BD00123FB73786899
:101B50000BF03AFE01224FF48041124802F0B4FD2E
:101B60000AE00023FB7378680BF09AFE00224FF422
:101B700080410C4802F0A8FD4FF40041094802F0F2
:101B8000BCFD094800F059FF084B186807F108022E
:101B900007F10F01002306F02BFA00BF1037BD46F6
:101BA00080BD00BF000C02405C610020A804002042
:101BB00080B400AF034B1B681846BD465DF8047B3C
:101BC000704700BF9C11002080B582B000AF002399
:101BD0007B60124B5B6C114A43F4804353640F4BA0
:101BE0005B6C03F480437B607B6800233B600B4BA2
:101BF0001B6C0A4A43F080531364084B1B6C03F0C0
:101C000080533B603B6800220F216FF0010000F021
:101C10007BFD00BF0837BD4680BD00BF00380240D5
:101C200080B58EB000AF78600023FB620023BB62FA
:101C30000023FB60334B1B6C324A43F010031364E8
:101C4000304B1B6C03F01003FB60FB6807F11002C4
:101C500007F114031146184603F000FA3B6AFB62D1
:101C6000FB6A002B03D103F0D1F9786304E003F0A1
:101C7000CDF903465B007B637B6B234AA2FB032306
:101C80009B0C013BBB62214B214A1A601F4B40F267
:101C9000E732DA601D4ABB6A53601C4B00221A61AE
:101CA0001A4B00229A60194B00229A61174803F0E0
:101CB00007FA034687F8333097F83330002B1BD1EF
:101CC000124803F057FA034687F8333097F8333059
:101CD000002B11D1362000F033FD7B680F2B08D884
:101CE00000227968362000F00FFD0A4A7B681360F5
:101CF00002E0012387F8333097F83330184638373D
:101D0000BD4680BD0038024083DE1B43A011002089
:101D1000001000400800002080B400AF00BFFDE7C5
:101D200080B400AF00BFFDE780B400AF00BFFDE7A7
:101D300080B400AF00BFFDE780B400AF00BFFDE797
:101D400080B400AF00BFBD465DF8047B7047000063
:101D500080B500AF024803F071FD00BF80BD00BF39
:101D6000D415002080B500AF024803F073FA00BF1D
:101D700080BD00BFA011002080B500AF024801F077
:101D800059F900BF80BD00BF5C61002080B400AF86
:101D900001231846BD465DF8047B704780B483B0CC
:101DA00000AF78603960054B16221A604FF0FF33A0
:101DB00018460C37BD465DF8047B7047F8110120CA
:101DC00080B582B000AF78604FF0FF317868FFF7E0
:101DD000E5FF00BFFDE780B586B000AFF860B960F1
:101DE0007A6000237B610AE0AFF300800146BB68A4
:101DF0005A1CBA60CAB21A707B6901337B617A6976
:101E00007B689A42F0DB7B6818461837BD4680BD78
:101E100080B586B000AFF860B9607A6000237B615E
:101E200009E0BB685A1CBA601B781846AFF3008003
:101E30007B6901337B617A697B689A42F1DB7B685D
:101E400018461837BD4680BD80B483B000AF7860B7
:101E50004FF0FF3318460C37BD465DF8047B7047E2
:101E600080B483B000AF786039603B684FF40052B3
:101E70005A60002318460C37BD465DF8047B704756
:101E800080B483B000AF7860012318460C37BD469C
:101E90005DF8047B704780B485B000AFF860B9602E
:101EA0007A60002318461437BD465DF8047B7047FE
:101EB00080B400AF064BD3F88830054A43F4700372
:101EC000C2F8883000BFBD465DF8047B704700BF94
:101ED00000ED00E080B400AF034B1B681846BD4620
:101EE0005DF8047B704700BFD015002080B483B03C
:101EF00000AF7860034A7B6813600C37BD465DF81D
:101F0000047B7047D015002080B483B000AF7860A8
:101F1000044A7B68136000BF0C37BD465DF8047B44
:101F2000704700BFBC04002080B400AF034B1B68A7
:101F30001846BD465DF8047B704700BFBC04002016
:101F400080B584B000AF786039607B68002B02D028
:101F50003B68002B08D11B4815F038FF1A4B1B4A71
:101F600040211B4815F01EFD3868FEF731F9034685
:101F7000BB60BB68B3F57A7F08DD164815F026FF15
:101F8000114B124A4221124815F00CFD0023FB6050
:101F90000EE0FB687A6813441A78FB6839680B44D2
:101FA0001B789A4201D0002307E0FB680133FB60F5
:101FB000FA68BB689A42ECDBBB6818461037BD462E
:101FC00080BD00BF6C9B0108849B010860D10108A3
:101FD000889B01089C9B010890B583B000AF786096
:101FE00005F0E6F903461A4619491A4815F0F6FEB7
:101FF0001848FEF7EDF80346164A134400221A70FB
:102000001448FEF7E5F804467868FEF7E1F8034661
:102010002344B3F57A7F0AD20E48FEF7D9F8034677
:102020000C4A13447A680C49184615F0D7FE094843
:10203000FEF7CEF80346074A134400221A700549FA
:10204000054815F05BFE00BF0C37BD4690BD00BFD4
:10205000B89B0108E8110020C49B010890B585B029
:1020600002AF786039607B68B3F5977F13D1FFF7D3
:102070009FFD0346002B1ED0FFF79AFD04463868EB
:10208000FEF7A6F802460023009301233968204694
:1020900008F03CFD0FE07B6840F22D1293420AD11C
:1020A0003868FEF795F803469AB24FF4FA73396828
:1020B000034803F000FB00BF0C37BD4690BD00BFD6
:1020C000D415002080B500AF114B124A1A60104B96
:1020D0004FF4E1325A600E4B00229A600C4B002202
:1020E000DA600B4B00221A61094B0C225A61084B33
:1020F00000229A61064B0022DA61054803F08EFA4D
:102100000346002B01D0FFF753FB00BF80BD00BF8B
:10211000D41500200010014080B58AB000AF78606F
:1021200007F1140300221A605A609A60DA601A619B
:102130007B681B681D4A934234D100233B611C4BD2
:102140005B6C1B4A43F010035364194B5B6C03F048
:1021500010033B613B690023FB60154B1B6B144A6A
:1021600043F001031363124B1B6B03F00103FB608D
:10217000FB684FF4C0637B610223BB610023FB61FA
:1021800003233B6207237B6207F1140319460948C6
:1021900002F0FEF800220521252000F0B5FA2520E6
:1021A00000F0CEFA00BF2837BD4680BD00100140C8
:1021B0000038024000000240DFF834D00D480E49DC
:1021C0000E4A002302E0D458C4500433C4188C4291
:1021D000F9D30B4A0B4C002301E013600432A242F6
:1021E000FBD3FFF765FE15F09BFFFFF743FA70473F
:1021F000000002200000002090000020B4D401085C
:10220000900000204C130120FEE780B483B000AFA3
:10221000786039607B68002B0BD03B68DB68002B53
:1022200007D03B689B68002B03D03B681B69002BE1
:1022300002D14FF0FF3314E03B681A687B689A6064
:102240003B685A687B68DA603B68DA687B685A6189
:102250003B689A687B681A613B681A697B689A6177
:10226000002318460C37BD465DF8047B704780B5E7
:1022700086B000AF78600023FB600023BB600023C2
:102280007B6100233B617B685B68002B7CD17B68B2
:102290009B68002B02D07B689B6898477B68202254
:1022A0001A6000237B611CE07B685B6907F1080210
:1022B0001921786998470346002B03DA6FF004036D
:1022C0003B610BE0BB6803F01F037A699A4205D1BA
:1022D0007B687A691A6000233B6105E07B69013302
:1022E0007B617B691F2BDFD97B681B681F2B02D9A1
:1022F0006FF002033B613B69002B45D17B681B6992
:102300007A6810684FF40042002198470346002B7A
:1023100037DB7B685B697A68106807F10802002187
:1023200098470346002B28DB7B689B699847034648
:10233000FB601CE07B689B69984703461A46FB6874
:10234000D31AB3F5FA7F0ED87B685B697A68106898
:1023500007F10802002198470346002B07DA6FF0C7
:1023600004033B6110E06FF001033B610CE0BB68CC
:1023700003F40043002BDDD106E06FF004033B6162
:1023800002E06FF003033B613B69002B12D17B68D5
:102390009B6998470346FB6000BF7B689B69984731
:1023A00003461A46FB68D31AB3F5FA6FF5D97B6872
:1023B00001225A603B6918461837BD4680BD80B57A
:1023C00084B000AF78600023FB607B685B697A684B
:1023D000106807F10C02012198470346002B02DA2E
:1023E0006FF004036EE07B685B697A68106807F140
:1023F0000C02012198470346002B02DA6FF0040318
:1024000060E0FB6803F00403002B01D1012359E0D5
:102410007B685B697A68106807F10C0200219847B5
:102420000346002B02DA6FF004034BE0FB6803F471
:102430008053002B1BD1FB6803F40053002B06D004
:10244000FB6803F48073002B01D002233AE0FB68A1
:1024500003F40053002B01D0032333E0FB6803F4A3
:102460008073002B01D004232CE005232AE07B6835
:102470005B697A68106807F10C02102198470346DF
:10248000002B02DA6FF004031CE0FB6803F4807396
:10249000002B01D1062315E0FB6803F00603042B93
:1024A00001D102230EE0FB6803F00603002B01D1EB
:1024B000032307E0FB6803F00603062B01D1042386
:1024C00000E0052318461037BD4680BD80B500AF3B
:1024D0000E4B1B680D4A43F4007313600B4B1B68D3
:1024E0000A4A43F480631360084B1B68074A43F4AD
:1024F00080731360032000F0FCF80020FFF790FBCE
:10250000FFF762FB0023184680BD00BF003C02407D
:1025100080B400AF064B1B781A46064B1B68134469
:10252000044A136000BFBD465DF8047B704700BFDE
:102530000C0000201816002080B400AF034B1B686D
:102540001846BD465DF8047B704700BF1816002092
:1025500080B584B000AF7860FFF7EEFFB8607B68AD
:10256000FB60FB68B3F1FF3F05D00A4B1B781A46AE
:10257000FB681344FB6000BFFFF7DEFF0246BB6849
:10258000D31AFA689A42F7D800BF00BF1037BD4689
:1025900080BD00BF0C00002080B485B000AF786023
:1025A0007B6803F00703FB600C4BDB68BB60BA6819
:1025B0004FF6FF031340BB60FB681A02BB6813436E
:1025C00043F0BF6343F40033BB60044ABB68D3608D
:1025D00000BF1437BD465DF8047B704700ED00E096
:1025E00080B400AF044BDB681B0A03F007031846F6
:1025F000BD465DF8047B704700ED00E080B483B019
:1026000000AF0346FB7197F90730002B0BDBFB791A
:1026100003F01F02074997F907305B09012000FA10
:1026200002F241F8232000BF0C37BD465DF8047B61
:10263000704700BF00E100E080B483B000AF034604
:102640003960FB7197F90730002B0ADB3B68DAB27F
:102650000C4997F907301201D2B20B4483F80023DA
:102660000AE03B68DAB20849FB7903F00F03043B48
:102670001201D2B20B441A7600BF0C37BD465DF88A
:10268000047B704700E100E000ED00E080B489B019
:1026900000AFF860B9607A60FB6803F00703FB6184
:1026A000FB69C3F10703042B28BF0423BB61FB694B
:1026B0000433062B02D9FB69033B00E000237B6156
:1026C0004FF0FF32BB6902FA03F3DA43BB681A40EA
:1026D0007B699A404FF0FF317B6901FA03F3D943DC
:1026E0007B680B40134318462437BD465DF8047BD6
:1026F000704780B582B000AF78607868FFF74CFF14
:1027000000BF0837BD4680BD80B586B000AF034628
:10271000B9607A60FB7300237B61FFF761FF78612A
:102720007A68B9687869FFF7B1FF024697F90F3008
:1027300011461846FFF780FF00BF1837BD4680BD21
:1027400080B582B000AF0346FB7197F90730184699
:10275000FFF754FF00BF0837BD4680BD80B584B089
:1027600000AF78607B689B6DFB60FFF7E5FEB860AB
:102770007B6893F83530DBB2022B08D07B6880226F
:102780005A657B68002283F83420012352E07B687D
:102790001B681A687B681B6822F016021A607B6847
:1027A0001B685A697B681B6822F080025A617B684B
:1027B0001B6C002B03D17B689B6C002B07D07B68C4
:1027C0001B681A687B681B6822F008021A607B6825
:1027D0001B681A687B681B6822F001021A6013E00C
:1027E000FFF7AAFE0246BB68D31A052B0CD97B68FB
:1027F00020225A657B68032283F835207B680022FB
:1028000083F83420032315E07B681B681B6803F002
:102810000103002BE4D17B68DB6D3F229A40FB680B
:102820009A607B68012283F835207B68002283F858
:102830003420002318461037BD4680BD80B483B0D5
:1028400000AF78607B6893F83530DBB2022B04D0A0
:102850007B6880225A6501230CE07B68052283F89F
:1028600035207B681B681A687B681B6822F00102B0
:102870001A60002318460C37BD465DF8047B70478C
:1028800080B584B000AF78607B68002B01D1012354
:102890006CE07B68D3F88430002B06D17B68232260
:1028A000C3F88420786804F02DFB0023BB60314B13
:1028B0005B6C304A43F4804353642E4B5B6C03F4EF
:1028C0008043BB60BB682C4B5B682B4A23F400033E
:1028D0005360294B5A687B689B68274913434B60B8
:1028E000254B5B687B681B6803F580531B687A681F
:1028F000126843F0010302F580521360FFF71CFEDB
:10290000F86011E0FFF718FE0246FB68D31AB3F532
:10291000FA7F09D97B680422C3F888207B68E0220B
:10292000C3F88420012321E07B681B6803F58053F2
:102930001B6803F00103002BE4D1786800F0AAFFC4
:10294000786801F051F8786801F0A7F87B685B6857
:102950001A460021786801F00FF87B680022C3F85E
:1029600088207B681022C3F8842000231846103783
:10297000BD4680BD003802400038014080B584B0BB
:1029800000AF78607B68D3F88430102B50D17B681F
:102990002322C3F884207B680422DA66786800F07A
:1029A00079FA7B681B681A687B681B6842F008022A
:1029B0001A607B681B681B68FB600120FFF7C8FD7D
:1029C0007B681B68FA681A607B681B681A687B68FA
:1029D0001B6842F004021A607B681B681B68FB607E
:1029E0000120FFF7B5FD7B681B68FA681A607868FC
:1029F00000F0F1FD7B681B6803F580539B697A68E2
:102A0000126843F4005302F5805293617B681B689F
:102A100003F580539B697A68126843F0020302F55C
:102A2000805293617B682322C3F88420002300E056
:102A3000012318461037BD4680BD80B584B000AF75
:102A400078607B68D3F88430102B7FD17B68232299
:102A5000C3F884207B6801229A657B681B68DA6B67
:102A60007B681B6842F40272DA637B681B68D3F8E8
:102A70000C317A68126843F4003343F06003C2F803
:102A80000C317B681B68D3F810217B681B6842F40B
:102A90000312C3F810217B680422DA66786800F01C
:102AA000F9F97B681B681A687B681B6842F00802AA
:102AB0001A607B681B681B68FB600120FFF748FDFC
:102AC0007B681B68FA681A607B681B681A687B68F9
:102AD0001B6842F004021A607B681B681B68FB607D
:102AE0000120FFF735FD7B681B68FA681A6078687B
:102AF00000F071FD7B681B6803F580539B697A6861
:102B0000126843F4005302F5805293617B681B689E
:102B100003F580539B697A68126843F0020302F55B
:102B2000805293617B681B6803F58053DB697A6888
:102B3000126843F4D03343F0C10302F58052D361ED
:102B40007B682322C3F88420002300E00123184679
:102B50001037BD4680BD80B586B000AF78607B6819
:102B6000D3F88430232B70D17B682322C3F88420D0
:102B70007B681B6803F58053DB697A68126823F46D
:102B8000D03323F0C10302F58052D3617B681B6808
:102B900003F580539B697A68126823F4005302F5A9
:102BA000805293617B681B6803F580539B697A6848
:102BB000126823F0020302F5805293617B681B6860
:102BC0001A687B681B6822F004021A607B681B6825
:102BD0001B683B610120FFF7BBFC7B681B683A69FF
:102BE0001A60786800F0F7FC7B681B681A687B68DD
:102BF0001B6822F008021A607B681B681B683B6137
:102C00000120FFF7A5FC7B681B683A691A60002366
:102C10007B610EE07B687A69123253F82230FB60E8
:102C2000FB685B6843F00042FB685A607B690133D4
:102C30007B617B69032BEDD97B6800229A657B68F9
:102C40001022C3F88420002300E00123184618371F
:102C5000BD4680BD80B582B000AF786039603B680A
:102C6000002B09D17B68D3F8883043F001027B68E0
:102C7000C3F88820012345E07B68D3F88430232BF8
:102C80003FD13B685A6B7B68DA6301223968786808
:102C900000F070FF0346002B09D07B68D3F8883022
:102CA00043F002027B68C3F8882001232AE0BFF3C7
:102CB0004F8F00BF7B689B6A5A1C7B689A627B6857
:102CC0009B6A032B04D97B689B6A1A1F7B689A62F4
:102CD0007B681B6803F580535B6903F00403002BDA
:102CE0000DD07B681B6803F580531A46042353619B
:102CF0007B681B6803F580531A460023536000234A
:102D000000E0012318460837BD4680BD80B588B075
:102D100000AF7860396000237B610023FB733B6860
:102D2000002B09D17B68D3F8883043F001027B681F
:102D3000C3F888200123A8E07B68D3F88430232BD4
:102D400001D00123A1E07B68DB6DFB617B68FA6940
:102D5000123253F82230BB617B68DB6EC3F104038F
:102D6000BB606AE0BB691B6803F48073002B07D06B
:102D7000BB699A697B689A67BB69DA697B685A673D
:102D8000BB691B6803F40073002B03D17B68DB6F06
:102D9000002B40D0BB691B6803F40073002B05D0E7
:102DA0007B6800221A667B6800225A667B685B6932
:102DB0003B61BB691B6803F48073002B0CD0BB69BB
:102DC0001B681B0CC3F30D03043B3B61BB691A6812
:102DD0007B681A670123FB73BB699A68BB691A6237
:102DE0007B6803F17C007B6803F18001BB691B6A8F
:102DF0001A463B699BB204F05FFA7B681B6E5A1C53
:102E00007B681A667B685A6E3B691A447B685A660F
:102E1000BB6900221A62FB690133FB61FB69032B6A
:102E200002D9FB69043BFB617B68FA69123253F8F3
:102E30002230BB617B6901337B61BB691B68002B5E
:102E400006DB7A69BB689A4202D2FB7B002B89D0F1
:102E50007B68DA6E7B691A447B68DA667B68DB6EB6
:102E6000002B02D0786800F015F87B68FA69DA6503
:102E7000FB7B012B08D17B68DA6F3B681A607B68AB
:102E80000022DA67002300E0012318462037BD4600
:102E900080BD000080B588B000AF78600023FB6083
:102EA0000123FB747B689B6EFB617B68FA691232BD
:102EB00053F822307B617B68DB6EBB6140E07B694D
:102EC0001B6A002B12D107F10C03184604F0C4F959
:102ED000FB68002B02D10023FB7407E0FB681A4655
:102EE0007B691A62FB681A467B699A60FB7C002B3F
:102EF00026D07B689B6D002B03D17B691E4A5A60EC
:102F000003E07B6944F2F8525A60BFF35F8F00BF61
:102F10007B691B6843F000427B691A60FB690133DF
:102F2000FB61FB69032B02D9FB69043BFB617B68F6
:102F3000FA69123253F822307B61BB69013BBB61F5
:102F4000BB69002B02D0FB7C002BB8D17B68DB6E09
:102F5000BA699A420CD07B681B6803F580531A4605
:102F6000002393607B68FA699A667B68BA69DA66BF
:102F700000BF2037BD4680BDF845008080B586B0D3
:102F800000AF78607B681833BB60BB689B6A7B616D
:102F9000BB68DB6A3B610123FB733FE00123BB732A
:102FA0007B69013B7B61BA683B6904339B00134436
:102FB0005B68002B06D13B69013303F003033B61DF
:102FC0000023BB73BB7B002B28D07B68D9683A6990
:102FD00013469B001344DB000B441B68002B1BDBD8
:102FE000BA683B6904339B0013445B68184604F0DD
:102FF000A3F9BA683B6904339B00134400225A606A
:103000003B69013303F003033B61BB687A699A6251
:10301000BB683A69DA6201E00023FB737B69002B2D
:1030200002D0FB7B002BB9D1002318461837BD46D0
:1030300080BD000080B582B000AF78607B681B68FF
:1030400003F580535B6903F04003402B12D17B688A
:103050001B6803F58053DB6903F04003402B09D163
:103060007B681B6803F580531A46504B53617868A0
:1030700003F0ACFC7B681B6803F580535B6903F0CD
:103080000103012B13D17B681B6803F58053DB69B7
:1030900003F00103012B0AD17B681B6803F5805301
:1030A0001A464FF001135361786803F09FFC7B6868
:1030B0001B6803F580535B6903F40043B3F5004FCD
:1030C0004CD17B681B6803F58053DB6903F4004334
:1030D000B3F5004F42D17B68D3F8883043F0080243
:1030E0007B68C3F888207B681B6803F580535B69A5
:1030F00003F40053B3F5005F1AD17B681B6803F536
:1031000080535A692A4B13407A68C2F88C307B6826
:103110001B6803F58053DB697A68126823F4C033B7
:1031200002F58052D3617B68E022C3F8842012E06C
:103130007B681B6803F580535A6948F2806313402B
:103140007A68C2F88C307B681B6803F580531A4696
:1031500048F280635361786803F058FC7B681B6811
:103160009B6B03F00803082B0ED17B681B68DB6A9E
:1031700003F060027B68C3F89420786800F01CF8C4
:103180007B680022C3F894200A4B5B6903F4002398
:10319000002B06D0074B4FF400225A61786800F0EC
:1031A00015F800BF0837BD4680BD00BF40000100D4
:1031B00000207E00003C014080B483B000AF786006
:1031C00000BF0C37BD465DF8047B704780B483B008
:1031D00000AF786000BF0C37BD465DF8047B7047D8
:1031E00080B586B000AFF860B9607A603B60FB687C
:1031F0001B681B697B617B6903F01C037B61BB68F7
:10320000DB029BB27A6913437B617B689B0103F409
:10321000F8637A6913437B617B6923F002037B6166
:103220007B6943F001037B61FB681B687A691A6163
:10323000FFF782F938610DE0FFF77EF902463B693E
:10324000D31AB3F5803F01D3012310E0FB681B685C
:103250001B697B617B6903F00103002BECD1FB68E8
:103260001B685B699BB21A463B681A6000231846CC
:103270001837BD4680BD80B586B000AFF860B96034
:103280007A603B60FB681B681B697B617B6903F0AC
:103290001C037B61BB68DB029BB27A6913437B61D1
:1032A0007B689B0103F4F8637A6913437B617B6954
:1032B00043F002037B617B6943F001037B613B6860
:1032C0009AB2FB681B685A61FB681B687A691A61CD
:1032D000FFF732F938610DE0FFF72EF902463B693E
:1032E000D31AB3F5803F01D3012309E0FB681B68C3
:1032F0001B697B617B6903F00103002BECD1002388
:1033000018461837BD4680BD80B483B000AF7860E2
:1033100039603B68002B01D10123D9E07B681B6831
:103320001B6803F01003002B14BF01230023DBB242
:103330001A463B6883F828207B681B681B6803F0EB
:1033400060023B685A627B681B681B6803F4007369
:10335000002B0CBF01230023DBB21A463B6883F825
:1033600020207B681B681B6803F48033002B14BF8C
:1033700001230023DBB21A463B68DA777B681B68BF
:103380001B6803F40053002B0CBF01230023DBB2A6
:103390001A463B689A777B681B681B6803F4805366
:1033A000002B14BF01230023DBB21A463B681A77B7
:1033B0007B681B681B6803F400623B689A617B684A
:1033C0001B681B6803F480423B685A617B681B687A
:1033D0001B6803F48003002B0CBF01230023DBB226
:1033E0001A463B685A747B681B681B6803F4000329
:1033F000002B0CBF01230023DBB21A463B681A7472
:103400007B681B681B6803F08003002B14BF01233B
:103410000023DBB21A463B68DA737B681B681B68C3
:1034200003F460223B689A607B681B681B6803F4A6
:103430008063002B14BF01230023DBB21A463B68D4
:103440001A717B681B689B6903F00203002B14BF91
:1034500001230023DBB21A463B6883F854207B68C3
:103460001B689B6903F08003002B0CBF0123002322
:10347000DBB21A463B6883F84C207B681B689B696B
:1034800003F030023B681A657B681B689B691B0C64
:103490009AB23B689A647B681B689B6903F00403DB
:1034A000002B14BF01230023DBB21A463B6883F8CC
:1034B00056207B681B689B6903F00803002B14BF30
:1034C00001230023DBB21A463B6883F85520002312
:1034D00018460C37BD465DF8047B704780B582B056
:1034E00000AF786039603B68002B01D101230BE00D
:1034F0007B68D3F88430102B05D13968786800F0E8
:103500008FF8002300E0012318460837BD4680BD30
:1035100080B584B000AF78607B681B681B69FB6076
:10352000FB6823F01C03FB6001F064FDB860BB681E
:103530001D4A934208D9BB681C4A934204D8FB68D1
:1035400043F00803FB6027E0BB68184A934208D9A0
:10355000BB68174A934204D2FB6843F00C03FB603C
:103560001AE0BB68124A934203D3BB68114A9342E4
:1035700011D9BB680F4A934208D9BB680E4A9342DF
:1035800004D8FB6843F00403FB6005E0FB6843F0EC
:103590001003FB6000E000BF7B681B68FA681A61DB
:1035A00000BF1037BD4680BDFF2C3101BF0E160293
:1035B00000879303FFE0F5057FD1F00880B483B066
:1035C00000AF78607B68D3F88C3018460C37BD4666
:1035D0005DF8047B704780B584B000AF786000234D
:1035E000FB607B681B6803F580539B697A681268EF
:1035F00043F4801302F5805293617B681B6803F5E6
:1036000080539B69FB600120FEF7A2FF7B681A686C
:10361000FB6802F58052936100BF1037BD4680BD44
:1036200080B584B000AF786039607B681B681B6828
:10363000FB60FA68514B1340FB603B681B7C002B1E
:1036400002D14FF4000200E000223B685B7C002BBB
:1036500002D14FF4800300E000231A433B689B68CB
:103660001A433B68DB7F1B041A433B685B691343C7
:103670003A68927F002A02D14FF4005200E0002203
:103680001A433B681B7F1B031A433B689B691A4321
:103690003B681B799B0213433A6892F82020002A6A
:1036A00002D14FF4007200E000221A433B68DB7B3A
:1036B000DB011A433B685B6A1A433B6893F8283086
:1036C0001B011343FA681343FB607B681B68FA68AD
:1036D0001A607B681B681B68FB600120FEF738FFDF
:1036E0007B681B68FA681A607B681B689B69FB60D3
:1036F000FA684FF641731340FB603B689B6C1B04F8
:103700003A6892F84C20002A01D1802200E0002281
:103710001A433B681B6D13433A6892F85520012AFF
:1037200001D1082200E0002213433A6892F85620A3
:10373000012A01D1042200E0002213433A6892F8E2
:103740005420012A01D1022200E000221343FA682A
:103750001343FB607B681B68FA689A617B681B688F
:103760009B69FB600120FEF7F3FE7B681B68FA682B
:103770009A6100BF1037BD4680BD00BF0F8120FF9A
:1037800080B584B000AF786039607B681B6803F552
:1037900080539B69FB60FA683D4B1340FB603B68BC
:1037A0001B7B002B02D14FF0806200E000223B68BF
:1037B0005B7B5B0613433A68527F002A02D14FF4C9
:1037C000801200E000221A433B689B7B5B051A4392
:1037D0003B685B691A433B681B7FDB011A433B680C
:1037E0009B7F9B011A433B681B6A1A433B6893F813
:1037F00024309B001343FA681343FB607B681B680B
:1038000003F580531A46FB6893617B681B6803F5D8
:1038100080539B69FB600120FEF79AFE7B681B6862
:1038200003F580531A46FB6893613B681B795A067F
:103830003B689B681A433B689B691A433B681B695A
:103840001A433B6893F82530DB011A433B689B6AB7
:103850009B001A433B681B6813437A68126843F461
:10386000000302F5805213607B681B6803F58053E8
:103870001B68FB600120FEF76BFE7B681B6803F58D
:1038800080531A46FB68136000BF1037BD4680BDE9
:10389000233FDEF880B5A6B000AF7860012387F83B
:1038A0004430012387F845300023FB63002387F869
:1038B0005330012387F85230002387F8503001231A
:1038C00087F83830002387F85430002387F84330D6
:1038D0000023BB65002387F85C300023FB670023CF
:1038E00087F880300023C7F88430002387F88A30B7
:1038F000002387F888304FF48043BB644FF40063A3
:10390000FB64002387F8893007F13403194678688F
:10391000FFF786FE01233B7501237B75012387F8A2
:1039200025300123BB750023FB61002387F8243079
:10393000002387F826300023BB62012387F82C3050
:1039400001233B734FF480333B614FF480033B62B0
:103950004FF40053BB61012387F82D3000233B63F4
:103960000023BB6007F1080319467868FFF708FFDA
:1039700000BF9837BD4680BD80B487B000AFF86007
:10398000B9607A607B6805331B781B027A68043261
:10399000127813437B61BA68114B13441A467B6952
:1039A00013607B6803331B781A067B6802331B782D
:1039B0001B041A437B6801331B781B0213437A688C
:1039C000127813437B61BA68064B13441A467B692D
:1039D000136000BF1C37BD465DF8047B704700BF15
:1039E000408002404480024080B485B000AF7860DF
:1039F0000023FB603EE07B68D968FA6813469B00B1
:103A00001344DB000B44BB60BB6800221A60BB6838
:103A100000225A60BB6800229A60BB680022DA600C
:103A2000B9687B68FA68063243F82210BB681B68E5
:103A300043F48012BB681A60FB68022B0CD87B68C9
:103A4000D968FB685A1C13469B001344DB000B44E7
:103A50001A46BB68DA6004E07B68DB681A46BB681C
:103A6000DA60BB681B6843F44002BB681A60FB68FD
:103A70000133FB60FB68032BBDD97B6800229A628F
:103A80007B68DA687B681B6803F580531A6100BFA6
:103A90001437BD465DF8047B704780B485B000AF35
:103AA00078600023FB6046E07B681969FA6813467A
:103AB0009B001344DB000B44BB60BB6800221A6010
:103AC000BB6800225A60BB6800229A60BB68002273
:103AD000DA60BB6800221A62BB6800225A62BB68C7
:103AE0004FF000421A60BB6844F2F8525A60BB685B
:103AF0005B6823F00042BB685A60B9687B68FA686B
:103B0000123243F82210FB68022B0CD87B6819692B
:103B1000FB685A1C13469B001344DB000B441A46F7
:103B2000BB68DA6004E07B681B691A46BB68DA6030
:103B3000FB680133FB60FB68032BB5D97B6800226F
:103B4000DA657B6800221A667B6800229A667B68C9
:103B50000022DA667B6800229A657B681A697B68B6
:103B60001B6803F58053DA6000BF1437BD465DF86B
:103B7000047B704780B48DB000AFF860B9607A60A4
:103B8000FB6818337B617B691B69FB627B691B697E
:103B90003B6100237B627B69FA6A53F822303B6207
:103BA000BB689B68FB610023BB613B6A1B6803F039
:103BB0000043B3F1004F07D07A69FB6A04339B00DE
:103BC00013445B68002B01D0022303E17B6A0133BD
:103BD0007B62FB691B681A463B6A9A603B6A5B68BA
:103BE00023F4FF5323F01F03FA6952681A433B6A18
:103BF0005A60BB681B6803F00103002B08D03B6AC6
:103C00001B6823F44002BB685B691A433B6A1A6075
:103C1000BB681B6803F02003002B08D03B6A1B68BD
:103C200023F04062BB681B691A433B6A1A60BB6899
:103C30001B6803F00403002B05D03B6A1B6843F0AC
:103C400080023B6A1A603B6A1B6843F080523B6A01
:103C50001A60BFF35F8F00BF3B6A1B6843F00042EE
:103C60003B6A1A6084E03B6A1B6823F000523B6A9F
:103C70001A607B68002B06D03B6A1B6843F08042C9
:103C80003B6A1A6005E03B6A1B6823F080423B6A8E
:103C90001A60FB6A0133FB62FB6A032B02D9FB6AE1
:103CA000043BFB627B69FA6A53F822303B623B6A51
:103CB0001B6823F080523B6A1A603B6A1B6803F062
:103CC0000043B3F1004F07D07A69FB6A04339B00CD
:103CD00013445B68002B29D03B69FB627B69FA6A5D
:103CE00053F822303B620023BB6219E0BFF35F8FC1
:103CF00000BF3B6A1B6823F000423B6A1A60FB6A04
:103D00000133FB62FB6A032B02D9FB6A043BFB62B3
:103D10007B69FA6A53F822303B62BB6A0133BB62AB
:103D2000BA6A7B6A9A42E1D3022353E07B6A013389
:103D30007B62FB699B68FB61FB691B681A463B6AF7
:103D40009A603B6A5B6823F4FF5323F01F03FA6910
:103D500052681A433B6A5A60BB690133BB61BFF3C7
:103D60005F8F00BF3B6A1B6843F000423B6A1A60EA
:103D7000FB699B68002B7FF476AF7B68002B06D035
:103D80003B6A1B6843F080423B6A1A6005E03B6A6D
:103D90001B6823F080423B6A1A603B6A1B6843F051
:103DA00000523B6A1A607B695A6A7969FB6A04337C
:103DB0009B000B445A607B69FA6A1A6172B600BFB5
:103DC0007B699A6ABB6913445A1C7B699A6262B622
:103DD00000BF002318463437BD465DF8047B7047AA
:103DE00080B586B000AFF860B960C7E90023012351
:103DF000FB75234B1B7E012B01D102233BE0204BA3
:103E000001221A764CF2503000F070F80346FB7530
:103E1000FB7D002B2BD1FB68002B05D13B7819468D
:103E2000B86800F01BF916E0FB68012B05D13B8850
:103E30001946B86800F0EEF80DE0FB68022B05D1DA
:103E40003B681946B86800F0C3F804E0D7E90023DE
:103E5000B86800F08BF84CF2503000F047F8034699
:103E6000FB75084B1B69074A23F001031361044BE0
:103E700000221A76FB7D18461837BD4680BD00BF6C
:103E80001C160020003C024080B483B000AF002329
:103E9000FB710B4B1B69002B0BDA094B094A5A606B
:103EA000074B094A5A60064B1B69002B01DA0123B4
:103EB000FB71FB7918460C37BD465DF8047B7047F3
:103EC000003C024023016745AB89EFCD80B400AFD1
:103ED000054B1B69044A43F0004313610023184655
:103EE000BD465DF8047B7047003C024080B584B05D
:103EF00000AF78600023FB601A4B0022DA61FEF706
:103F00001BFBF86010E07B68B3F1FF3F0CD07B68CF
:103F1000002B07D0FEF710FB0246FB68D31A7A6825
:103F20009A4201D2032319E00F4BDB6803F480337C
:103F3000002BE8D10C4BDB6803F00103002B02D00F
:103F4000094B0122DA60084BDB6803F0F203002B17
:103F500003D000F0A5F8012300E000231846103735
:103F6000BD4680BD1C160020003C024080B485B0D8
:103F700000AFF860C7E90023144B1B69134A23F410
:103F800040731361114B1B69104A43F44073136172
:103F90000E4B1B690D4A43F001031361FB683A683D
:103FA0001A60BFF36F8F00BFD7E900014FF0000226
:103FB0004FF000030A000023F968043113460B6038
:103FC00000BF1437BD465DF8047B7047003C0240DB
:103FD00080B483B000AF786039600D4B1B690C4A28
:103FE00023F4407313610A4B1B69094A43F40073BD
:103FF0001361074B1B69064A43F0010313617B6899
:104000003A681A6000BF0C37BD465DF8047B704704
:10401000003C024080B483B000AF78600B467B80E8
:104020000D4B1B690C4A23F4407313610A4B1B6947
:10403000094A43F480731361074B1B69064A43F036
:10404000010313617B687A881A8000BF0C37BD4674
:104050005DF8047B704700BF003C024080B483B031
:1040600000AF78600B46FB700C4B1B690B4A23F4C6
:1040700040731361094B094A1B691361074B1B69A4
:10408000064A43F0010313617B68FA781A7000BF97
:104090000C37BD465DF8047B704700BF003C024012
:1040A00080B400AF274BDB6803F01003002B08D06F
:1040B000254BDB6943F01003234AD361214B1022C7
:1040C000DA60204BDB6803F02003002B08D01E4B86
:1040D000DB6943F008031C4AD3611A4B2022DA60E3
:1040E000184BDB6803F04003002B08D0164BDB694C
:1040F00043F00403144AD361124B4022DA60114B9F
:10410000DB6803F08003002B08D00F4BDB6943F022
:1041100002030D4AD3610B4B8022DA60094BDB6846
:1041200003F00203002B08D0074BDB6943F02003A8
:10413000054AD361034B0222DA6000BFBD465DF839
:10414000047B7047003C02401C16002080B584B000
:1041500000AF786039600123FB730023BB60314BF3
:104160001B7E012B01D1022358E02E4B01221A762F
:104170004CF25030FFF7BAFE0346FB73FB7B002B7B
:1041800048D13B684FF0FF321A607B681B68012BF7
:1041900015D17B681B69DAB27B685B6819461046EB
:1041A00000F044F84CF25030FFF7A0FE0346FB73DA
:1041B0001D4B1B691C4A23F00403136128E07B6834
:1041C0009B68BB601CE07B681B69DBB21946B86862
:1041D00000F050F84CF25030FFF788FE0346FB73B6
:1041E000114B1B69104A23F0FA031361FB7B002B70
:1041F00003D03B68BA681A600AE0BB680133BB6051
:104200007B68DA687B689B681344BA689A42DAD3A1
:1042100000F078F8034B00221A76FB7B1846103723
:10422000BD4680BD1C160020003C024080B483B017
:1042300000AF03463960FB710D4B1B690C4A23F438
:10424000407313610A4B1B69094A43F0040313616D
:10425000074B1A69FB791B021343054A43F4803369
:10426000136100BF0C37BD465DF8047B704700BF8B
:10427000003C024080B485B000AF78600B46FB7014
:104280000023FB60FB78002B02D10023FB6010E0D1
:10429000FB78012B03D14FF48073FB6009E0FB78BE
:1042A000022B03D14FF40073FB6002E04FF4407324
:1042B000FB60134B1B69124A23F440731361104BCC
:1042C0001A690F49FB6813430B610D4B1B690C4ABC
:1042D00023F0F80313610A4B1A697B68DB00134370
:1042E000074A43F002031361054B1B69044A43F478
:1042F0008033136100BF1437BD465DF8047B7047FF
:10430000003C024080B400AF204B1B6803F40073F4
:10431000002B17D01D4B1B681C4A23F4007313603D
:104320001A4B1B68194A43F400631360174B1B6850
:10433000164A23F400631360144B1B68134A43F4BA
:1043400000731360114B1B6803F48063002B17D0BC
:104350000E4B1B680D4A23F4806313600B4B1B68E4
:104360000A4A43F480531360084B1B68074A23F43E
:1043700080531360054B1B68044A43F48063136049
:1043800000BFBD465DF8047B704700BF003C0240A3
:1043900080B489B000AF7860396000237B6100236E
:1043A0003B610023BB610023FB616BE10122FB69E0
:1043B00002FA03F37B613B681B687A6913403B6137
:1043C0003A697B699A4240F05A813B685B6803F026
:1043D0000303012B05D03B685B6803F00303022B4A
:1043E00030D17B689B68BB61FB695B00032202FAEA
:1043F00003F3DB43BA691340BB613B68DA68FB69CE
:104400005B0002FA03F3BA691343BB617B68BA69C4
:104410009A607B685B68BB610122FB6902FA03F367
:10442000DB43BA691340BB613B685B681B0903F05F
:104430000102FB6902FA03F3BA691343BB617B68AB
:10444000BA695A603B685B6803F00303032B17D01B
:104450007B68DB68BB61FB695B00032202FA03F344
:10446000DB43BA691340BB613B689A68FB695B0038
:1044700002FA03F3BA691343BB617B68BA69DA6075
:104480003B685B6803F00303022B23D1FB69DA0866
:104490007B68083253F82230BB61FB6903F00703E5
:1044A0009B000F2202FA03F3DB43BA691340BB619E
:1044B0003B681A69FB6903F007039B0002FA03F3E8
:1044C000BA691343BB61FB69DA087B680832B969D2
:1044D00043F822107B681B68BB61FB695B00032209
:1044E00002FA03F3DB43BA691340BB613B685B68C4
:1044F00003F00302FB695B0002FA03F3BA6913439A
:10450000BB617B68BA691A603B685B6803F440333F
:10451000002B00F0B4800023FB60604B5B6C5F4AB3
:1045200043F4804353645D4B5B6C03F48043FB6056
:10453000FB685B4AFB699B08023352F82330BB617E
:10454000FB6903F003039B000F2202FA03F3DB4332
:10455000BA691340BB617B68524A93422BD07B6897
:10456000514A934225D07B68504A93421FD07B68C2
:104570004F4A934219D07B684E4A934213D07B68CE
:104580004D4A93420DD07B684C4A934207D07B68DA
:104590004B4A934201D107230EE008230CE0062387
:1045A0000AE0052308E0042306E0032304E00223D5
:1045B00002E0012300E00023FA6902F00302920006
:1045C0009340BA691343BB613549FB699B080233C9
:1045D000BA6941F823203B4B9B68BB613B69DB43D5
:1045E000BA691340BB613B685B6803F48013002B1E
:1045F00003D0BA693B691343BB61324ABB6993601C
:10460000304BDB68BB613B69DB43BA691340BB617C
:104610003B685B6803F40013002B03D0BA693B6965
:104620001343BB61274ABB69D360264B5B68BB6100
:104630003B69DB43BA691340BB613B685B6803F4C9
:104640000033002B03D0BA693B691343BB611D4A99
:10465000BB6953601B4B1B68BB613B69DB43BA6999
:104660001340BB613B685B6803F48033002B03D0CD
:10467000BA693B691343BB61124ABB691360FB69AA
:104680000133FB61FB690F2B7FF690AE00BF00BFCB
:104690002437BD465DF8047B704700BF00380240F8
:1046A00000380140000002400004024000080240BF
:1046B000000C0240001002400014024000180240AA
:1046C000001C0240003C014080B483B000AF786021
:1046D0000B467B8013467B707B78002B03D07A8857
:1046E0007B689A6103E07B881A047B689A6100BF4B
:1046F0000C37BD465DF8047B704780B485B000AFD1
:1047000078600B467B807B685B69FB607A88FB681E
:1047100013401A04FB68D9437B880B401A437B681B
:104720009A6100BF1437BD465DF8047B70470000F6
:1047300080B586B000AF78607B68002B01D1012383
:1047400067E27B681B6803F00103002B75D0884B80
:104750009B6803F00C03042B0CD0854B9B6803F083
:104760000C03082B12D1824B5B6803F48003B3F572
:10477000800F0BD17E4B1B6803F40033002B5BD002
:104780007B685B68002B57D1012342E27B685B6842
:10479000B3F5803F06D1764B1B68754A43F48033EE
:1047A00013601DE07B685B68B3F5A02F0CD1704BE4
:1047B0001B686F4A43F4802313606D4B1B686C4A7F
:1047C00043F4803313600BE0694B1B68684A23F4A1
:1047D00080331360664B1B68654A23F480231360A3
:1047E0007B685B68002B13D0FDF7A6FE386108E0FC
:1047F000FDF7A2FE02463B69D31A642B01D90323BD
:1048000007E25B4B1B6803F40033002BF0D014E08D
:10481000FDF792FE386108E0FDF78EFE02463B6927
:10482000D31A642B01D90323F3E1514B1B6803F422
:104830000033002BF0D100E000BF7B681B6803F061
:104840000203002B63D04A4B9B6803F00C03002B40
:104850000BD0474B9B6803F00C03082B1CD1444B37
:104860005B6803F48003002B16D1414B1B6803F0F7
:104870000203002B05D07B68DB68012B01D00123EC
:10488000C7E13B4B1B6823F0F8027B681B69DB0028
:10489000374913430B603AE07B68DB68002B20D07C
:1048A000344B01221A60FDF747FE386108E0FDF73E
:1048B00043FE02463B69D31A022B01D90323A8E128
:1048C0002B4B1B6803F00203002BF0D0284B1B6816
:1048D00023F0F8027B681B69DB00254913430B605A
:1048E00015E0244B00221A60FDF726FE386108E02F
:1048F000FDF722FE02463B69D31A022B01D903239E
:1049000087E11B4B1B6803F00203002BF0D17B688F
:104910001B6803F00803002B36D07B685B69002B13
:1049200016D0154B01221A60FDF706FE386108E02B
:10493000FDF702FE02463B69D31A022B01D903237D
:1049400067E10B4B5B6F03F00203002BF0D01BE021
:10495000094B00221A60FDF7EFFD38610EE0FDF70C
:10496000EBFD02463B69D31A022B07D9032350E122
:104970000038024000004742800E4742884B5B6F80
:1049800003F00203002BEAD17B681B6803F00403E9
:10499000002B00F097800023FB75814B1B6C03F00C
:1049A0008053002B0FD10023BB607D4B1B6C7C4AD6
:1049B00043F0805313647A4B1B6C03F08053BB604D
:1049C000BB680123FB75774B1B6803F48073002BD6
:1049D00018D1744B1B68734A43F480731360FDF75E
:1049E000ABFD386108E0FDF7A7FD02463B69D31A2D
:1049F000022B01D903230CE16A4B1B6803F480737B
:104A0000002BF0D07B689B68012B06D1644B1B6F99
:104A1000634A43F0010313671CE07B689B68052B26
:104A20000CD15F4B1B6F5E4A43F0040313675C4B72
:104A30001B6F5B4A43F0010313670BE0584B1B6F7E
:104A4000574A23F001031367554B1B6F544A23F059
:104A5000040313677B689B68002B15D0FDF76CFD82
:104A600038610AE0FDF768FD02463B69D31A41F25E
:104A70008832934201D90323CBE0494B1B6F03F0EB
:104A80000203002BEED014E0FDF756FD38610AE07A
:104A9000FDF752FD02463B69D31A41F28832934238
:104AA00001D90323B5E03E4B1B6F03F00203002B3B
:104AB000EED1FB7D012B05D1394B1B6C384A23F01D
:104AC000805313647B689B69002B00F0A180344BFA
:104AD0009B6803F00C03082B5CD07B689B69022B5E
:104AE00041D1314B00221A60FDF726FD386108E004
:104AF000FDF722FD02463B69D31A022B01D903239D
:104B000087E0274B1B6803F00073002BF0D17B6814
:104B1000DA697B681B6A1A437B685B6A9B011A43EC
:104B20007B689B6A5B08013B1B041A437B68DB6A5A
:104B30001B061B4913434B601B4B01221A60FDF7F8
:104B4000FBFC386108E0FDF7F7FC02463B69D31A2D
:104B5000022B01D903235CE0114B1B6803F00073A7
:104B6000002BF0D054E0104B00221A60FDF7E4FC5B
:104B7000386108E0FDF7E0FC02463B69D31A022BDE
:104B800001D9032345E0064B1B6803F00073002B9B
:104B9000F0D13DE07B689B69012B07D1012338E010
:104BA0000038024000700040600047421B4B5B68C9
:104BB000FB607B689B69012B28D0FB6803F48002B3
:104BC0007B68DB699A4221D1FB6803F03F027B6876
:104BD0001B6A9A421AD1FA6847F6C07313407A6882
:104BE000526A9201934211D1FB6803F440327B6810
:104BF0009B6A5B08013B1B049A4207D1FB6803F0E8
:104C000070627B68DB6A1B069A4201D0012300E0D8
:104C1000002318461837BD4680BD00BF003802404B
:104C200080B584B000AF786039607B68002B01D11B
:104C30000123CCE0684B1B6803F007033A689A42F3
:104C40000CD9654B3A68D2B21A70634B1B6803F0FB
:104C500007033A689A4201D00123B8E07B681B68D9
:104C600003F00203002B20D07B681B6803F00403D1
:104C7000002B05D0594B9B68584A43F4E05393608E
:104C80007B681B6803F00803002B05D0534B9B681F
:104C9000524A43F460439360504B9B6823F0F00208
:104CA0007B689B684D4913438B607B681B6803F0EE
:104CB0000103002B44D07B685B68012B07D1474B75
:104CC0001B6803F40033002B19D101237FE07B68BC
:104CD0005B68022B03D07B685B68032B07D13F4BDB
:104CE0001B6803F00073002B09D101236FE03B4BDD
:104CF0001B6803F00203002B01D1012367E0374B4F
:104D00009B6823F003027B685B68344913438B6024
:104D1000FDF712FCF8600AE0FDF70EFC0246FB68A6
:104D2000D31A41F28832934201D903234FE02B4B2F
:104D30009B6803F00C027B685B689B009A42EBD196
:104D4000254B1B6803F007033A689A420CD2224BAA
:104D50003A68D2B21A70204B1B6803F007033A6816
:104D60009A4201D0012332E07B681B6803F0040300
:104D7000002B08D0194B9B6823F4E0527B68DB685A
:104D8000164913438B607B681B6803F00803002BF4
:104D900009D0124B9B6823F460427B681B69DB00DF
:104DA0000E4913438B6000F021F802460B4B9B68C1
:104DB0001B0903F00F030A49CB5C22FA03F3094AEB
:104DC0001360094B1B681846FCF72AFF002318469E
:104DD0001037BD4680BD00BF003C02400038024095
:104DE00048D1010804000020080000202DE9B04F40
:104DF00094B000AF00237B640023FB6400233B647A
:104E00000023BB64794B9B6803F00C03082B0DD087
:104E1000082B00F2E180002B02D0042B03D0DBE052
:104E2000734BBB64DBE0724BBB64D8E06F4B5B68D9
:104E300003F03F037B646D4B5B6803F48003002B3E
:104E400063D06A4B5B689B090022BB63FA63BB6B50
:104E5000C3F308033B6300237B63D7E90C45224679
:104E60002B464FF000004FF00001590141EAD2619A
:104E7000500102460B462146511A3961294663EB1F
:104E800001037B614FF000024FF00003D7E904AB50
:104E900059468B01514643EA916351468A01514676
:104EA000B2EB0108594663EB01094FF000024FF0E5
:104EB00000034FEAC90343EA58734FEAC802904619
:104EC0009946234618EB0303BB602B4649EB0303CB
:104ED000FB604FF000024FF00003D7E9024529467E
:104EE0008B02214643EA915321468A021046194615
:104EF0007B6C0022BB62FA62D7E90A23FBF72CFC29
:104F000002460B461346FB6458E0384B5B689B092E
:104F1000002218461146C0F308033B6200237B625F
:104F2000D7E9088942464B464FF000004FF0000198
:104F3000590141EAD261500102460B464146B2EBAB
:104F4000010A494663EB010B4FF000024FF00003EA
:104F50004FEA8B1343EA9A634FEA8A12B2EB0A04D0
:104F600063EB0B054FF000024FF00003EB0043EA48
:104F70005473E20014461D464346E3183B604B461B
:104F800045EB03037B604FF000024FF00003D7E9CD
:104F9000004529468B02214643EA915321468A0265
:104FA000104619467B6C0022BB61FA61D7E90623E3
:104FB000FBF7D2FB02460B461346FB640B4B5B68C8
:104FC0001B0C03F0030301335B003B64FA6C3B6C86
:104FD000B2FBF3F3BB6402E0054BBB6400BFBB6CE8
:104FE00018465037BD46BDE8B08F00BF00380240BC
:104FF0000024F40080B400AF034B1B681846BD4684
:105000005DF8047B704700BF0400002080B500AF4E
:10501000FFF7F0FF0246054B9B689B0A03F007036E
:105020000349CB5C22FA03F3184680BD00380240E6
:1050300058D1010880B500AFFFF7DCFF0246054BF1
:105040009B685B0B03F007030349CB5C22FA03F375
:10505000184680BD0038024058D1010880B483B0A2
:1050600000AF786039607B680F221A60124B9B6832
:1050700003F003027B685A600F4B9B6803F0F00259
:105080007B689A600C4B9B6803F4E0527B68DA60A3
:10509000094B9B68DB0803F4E0527B681A61074BFD
:1050A0001B6803F007023B681A6000BF0C37BD465F
:1050B0005DF8047B704700BF00380240003C0240AE
:1050C00080B582B000AF78607B68002B01D10123EE
:1050D00041E07B6893F83D30DBB2002B06D17B6862
:1050E000002283F83C20786800F039F87B680222BF
:1050F00083F83D207B681A687B68043319461046A4
:1051000000F0D8F97B68012283F846207B680122F1
:1051100083F83E207B68012283F83F207B680122D0
:1051200083F840207B68012283F841207B680122BC
:1051300083F842207B68012283F843207B680122A8
:1051400083F844207B68012283F845207B68012294
:1051500083F83D20002318460837BD4680BD80B443
:1051600083B000AF786000BF0C37BD465DF8047BAC
:105170007047000080B485B000AF78607B6893F81A
:105180003D30DBB2012B01D001234EE07B680222CF
:1051900083F83D207B681B68DA687B681B6842F0F7
:1051A0000102DA607B681B68234A934222D07B6845
:1051B0001B68B3F1804F1DD07B681B681F4A934268
:1051C00018D07B681B681E4A934213D07B681B680B
:1051D0001C4A93420ED07B681B681B4A934209D03D
:1051E0007B681B68194A934204D07B681B68184A85
:1051F000934211D17B681B689B6803F00703FB6037
:10520000FB68062B10D07B681B681A687B681B68DC
:1052100042F001021A6007E07B681B681A687B682D
:105220001B6842F001021A60002318461437BD467D
:105230005DF8047B704700BF00000140000400409F
:1052400000080040000C0040000401400040014004
:105250000018004080B582B000AF78607B681B68A2
:105260001B6903F00203022B22D17B681B68DB68F9
:1052700003F00203022B1BD17B681B686FF0020254
:105280001A617B6801221A777B681B689B6903F0AF
:105290000303002B03D0786800F0EEF805E078688F
:1052A00000F0E0F8786800F0F1F87B6800221A77E7
:1052B0007B681B681B6903F00403042B22D17B6805
:1052C0001B68DB6803F00403042B1BD17B681B689D
:1052D0006FF004021A617B6802221A777B681B68F0
:1052E0009B6903F44073002B03D0786800F0C4F886
:1052F00005E0786800F0B6F8786800F0C7F87B68D9
:1053000000221A777B681B681B6903F00803082BCF
:1053100022D17B681B68DB6803F00803082B1BD1D4
:105320007B681B686FF008021A617B6804221A7799
:105330007B681B68DB6903F00303002B03D07868EC
:1053400000F09AF805E0786800F08CF8786800F0D2
:105350009DF87B6800221A777B681B681B6903F045
:105360001003102B22D17B681B68DB6803F010034D
:10537000102B1BD17B681B686FF010021A617B68D1
:1053800008221A777B681B68DB6903F44073002BE3
:1053900003D0786800F070F805E0786800F062F8F3
:1053A000786800F073F87B6800221A777B681B68C6
:1053B0001B6903F00103012B0ED17B681B68DB68BE
:1053C00003F00103012B07D17B681B686FF001021A
:1053D0001A617868FCF7DAF97B681B681B6903F0CF
:1053E0008003802B0ED17B681B68DB6803F0800391
:1053F000802B07D17B681B686FF080021A61786888
:1054000000F002F97B681B681B6903F04003402B26
:105410000ED17B681B68DB6803F04003402B07D18B
:105420007B681B686FF040021A61786800F038F8FA
:105430007B681B681B6903F02003202B0ED17B685F
:105440001B68DB6803F02003202B07D17B681B68F7
:105450006FF020021A61786800F0CCF800BF0837BE
:10546000BD4680BD80B483B000AF786000BF0C370C
:10547000BD465DF8047B704780B483B000AF7860B0
:1054800000BF0C37BD465DF8047B704780B483B025
:1054900000AF786000BF0C37BD465DF8047B7047F5
:1054A00080B483B000AF786000BF0C37BD465DF8B4
:1054B000047B704780B485B000AF786039607B684A
:1054C0001B68FB607B68404A934213D07B68B3F152
:1054D000804F0FD07B683D4A93420BD07B683C4A9B
:1054E000934207D07B683B4A934203D07B683A4A99
:1054F000934208D1FB6823F07003FB603B685B6854
:10550000FA681343FB607B682F4A93422BD07B6879
:10551000B3F1804F27D07B682C4A934223D07B681D
:105520002B4A93421FD07B682A4A93421BD07B6848
:10553000294A934217D07B68284A934213D07B684C
:10554000274A93420FD07B68264A93420BD07B6850
:10555000254A934207D07B68244A934203D07B6854
:10556000234A934208D1FB6823F44073FB603B68F5
:10557000DB68FA681343FB60FB6823F080023B683A
:105580005B691343FB607B68FA681A603B689A6842
:105590007B68DA623B681A687B689A627B680A4AB1
:1055A000934203D07B680C4A934203D13B681A694B
:1055B0007B681A637B6801225A6100BF1437BD46BD
:1055C0005DF8047B704700BF00000140000400400C
:1055D00000080040000C0040000401400040014071
:1055E000004401400048014000180040001C0040F9
:1055F0000020004080B483B000AF786000BF0C375B
:10560000BD465DF8047B704780B483B000AF78601E
:1056100000BF0C37BD465DF8047B704780B582B093
:1056200000AF78607B68002B01D101233FE07B68ED
:1056300093F83D30DBB2002B06D17B68002283F863
:105640003C207868FCF768FD7B68242283F83D20C5
:105650007B681B68DA687B681B6822F40052DA609A
:10566000786800F0DFFD7B681B681A697B681B683F
:1056700022F490421A617B681B685A697B681B6838
:1056800022F02A025A617B681B68DA687B681B6813
:1056900042F40052DA607B6800221A647B682022A0
:1056A00083F83D207B68202283F83E2000231846A3
:1056B0000837BD4680BD80B58AB002AFF860B960DA
:1056C0003B601346FB8000237B61FB6893F83D3011
:1056D000DBB2202B7CD1BB68002B02D0FB88002BD7
:1056E00001D1012375E0FB6893F83C30012B01D117
:1056F00002236EE0FB68012283F83C20FB68002255
:105700001A64FB68212283F83D20FCF715FF7861BD
:10571000FB68FA889A84FB68FA88DA84FB689B68DD
:10572000B3F5805F08D1FB681B69002B04D100230F
:10573000FB61BB68BB6103E0BB68FB610023BB612D
:10574000FB68002283F83C202AE03B6800937B69D9
:1057500000228021F86800F01FFB0346002B01D0D7
:10576000032336E0FB69002B0BD1BB691B881A466B
:10577000FB681B68C2F308025A60BB690233BB6155
:1057800007E0FB691A78FB681B685A60FB69013304
:10579000FB61FB68DB8C9BB2013B9AB2FB68DA844D
:1057A000FB68DB8C9BB2002BCFD13B6800937B69FD
:1057B00000224021F86800F0EFFA0346002B01D0E8
:1057C000032306E0FB68202283F83D20002300E04D
:1057D000022318462037BD4680BD80B584B000AF97
:1057E000F860B9601346FB80FB6893F83E30DBB28B
:1057F000202B1DD1BB68002B02D0FB88002B01D1D0
:10580000012316E0FB6893F83C30012B01D1022301
:105810000FE0FB68012283F83C20FB6800221A633A
:10582000FB881A46B968F86800F024FB034600E0DC
:10583000022318461037BD4680BD000080B5BAB0BF
:1058400000AF78607B681B681B68C7F8E4307B6832
:105850001B68DB68C7F8E0307B681B685B69C7F8CA
:10586000DC300023C7F8D8300023C7F8D430D7F88D
:10587000E43003F00F03C7F8D830D7F8D830002B46
:105880000FD1D7F8E43003F02003002B09D0D7F86C
:10589000E03003F02003002B03D0786800F007FC11
:1058A00056E2D7F8D830002B00F0DE80D7F8DC3095
:1058B00003F00103002B06D1D7F8E03003F4907316
:1058C000002B00F0D180D7F8E43003F00103002B67
:1058D0000BD0D7F8E03003F48073002B05D07B6841
:1058E0001B6C43F001027B681A64D7F8E43003F0C4
:1058F0000403002B0BD0D7F8DC3003F00103002B9E
:1059000005D07B681B6C43F002027B681A64D7F8F1
:10591000E43003F00203002B0BD0D7F8DC3003F0A7
:105920000103002B05D07B681B6C43F004027B68ED
:105930001A64D7F8E43003F00803002B11D0D7F82D
:10594000E03003F02003002B05D1D7F8DC3003F062
:105950000103002B05D07B681B6C43F008027B68B9
:105960001A647B681B6C002B00F0ED81D7F8E430E3
:1059700003F02003002B08D0D7F8E03003F0200319
:10598000002B02D0786800F092FB7B681B685B6993
:1059900003F04003402B0CBF01230023DBB2C7F808
:1059A000D4307B681B6C03F00803002B03D1D7F8BD
:1059B000D430002B4FD0786800F09AFA7B681B68CF
:1059C0005B6903F04003402B41D17B681B681433B3
:1059D000C7F89C30D7F89C3053E8003FC7F89830A0
:1059E000D7F8983023F04003C7F8D0307B681B68A5
:1059F0001433D7F8D020C7F8A820C7F8A430D7F8B8
:105A0000A410D7F8A82041E80023C7F8A030D7F8A1
:105A1000A030002BD9D17B689B6B002B13D07B6807
:105A20009B6B7D4A1A657B689B6B1846FCF706FFEB
:105A30000346002B16D07B689B6B1B6D7A68926BBC
:105A4000104698470EE0786800F090F90AE0786810
:105A500000F08CF906E0786800F088F97B68002295
:105A60001A6470E100BF6EE17B681B6B012B40F094
:105A70004A81D7F8E43003F01003002B00F0438193
:105A8000D7F8E03003F01003002B00F03C81002336
:105A9000BB607B681B681B68BB607B681B685B68BE
:105AA000BB60BB687B681B685B6903F04003402BED
:105AB00040F0B4807B689B6B1B685B68A7F8BE30C6
:105AC000B7F8BE30002B00F040817B689B8DB7F8A3
:105AD000BE209A4280F039817B68B7F8BE20DA8513
